:400000000080002011000000A10B0000A10B000008B5044B1A6803F53F5302331A6000F0DFFD00BFFA46004010B5054C237833B9044B13B10448AFF300800123237010BD43
:400040003881FF1F0000000068190000084B10B51BB108490848AFF300800848036803B910BD074B002BFBD0BDE81040184700BF000000003C81FF1F68190000C880FF1F20
:400080000000000008B50023184A1370184A1370184A1370184A1370184A1370184A1370184A1370184A1370184A137062B600F021FE174800F07AFE00F0EEFE154800F03C
:4000C000A7FF154800F0CCFF00F032FA0E4B1B78DBB2012B04D100F0E7FA00220A4B1A700A4B187800F078FBF0E700BFAE81FF1FB081FF1FAB81FF1FB181FF1F6781FF1FC0
:40010000AC81FF1F6681FF1FAA81FF1FA881FF1F1D010000890400009D04000008B500F0F7FD944B18703038432800F26B81DFE810F05B006A00B900F30039016901690194
:400140006901690169016901690169016901690144006901690147006901690169014F006901690169016901690157006901690166015300690169014B00690169016901EF
:400180006901690169016901690169016901690169016901690147006901690169014F006901690169016901690157006901690166015300690169014B0000F0B9F921E123
:4001C00001226D4B1A701DE100226B4B1A7019E101226A4B1A7015E10122694B1A7011E10122684B1A700DE1664B1B78DBB2012B40F008810022634B1A700120624B1870E1
:4002000000F068FEFEE05D4B1B78DBB2012B14D15B4B1B7813F0FF0F0FD15A4B1B7813F0FF0F0AD10022554B1A700123574A13708021574A1170574A1370504B1B7813F0B7
:40024000FF0F14D14E4B1B78DBB2012B0FD14D4B1B7813F0FF0F0AD10022494B1A7001234D4A137017214D4A11704D4A1370434B1B7813F0FF0F40F0C580414B1B7813F0FE
:40028000FF0F40F0BF803F4B1B78DBB2012B40F0B98000203B4B187002223B4B1A7000F019FEAFE0354B1B78DBB2012B15D1344B1B7813F0FF0F10D1324B1B7813F0FF0FB3
:4002C0000BD100222D4B1A700222304B1A7090222F4B1A7001222F4B1A70284B1B7813F0FF0F40F08F80264B1B78DBB2012B40F08980244B1B7813F0FF0F40F08380002244
:400300001F4B1A700222244B1A702722234B1A700122234B1A7075E0184B1B78DBB2012B10D1174B1B7813F0FF0F0BD10022134B1A700322154B1A70A022154B1A700122A1
:40034000144B1A700D4B1B7813F0FF0F5AD10C4B1B78DBB2012B55D10022094B1A7003220D4B1A7037220D4B1A7001220C4B1A7048E000BFB381FF1FB181FF1FAE81FF1F88
:40038000B081FF1FAB81FF1F6681FF1F6781FF1FAD81FF1FB281FF1FAC81FF1FA981FF1FAF81FF1F2E4B1B78DBB2012B10D12D4B1B7813F0FF0F0BD10022294B1A70042237
:4003C000294B1A70B022294B1A700122284B1A70234B1B7813F0FF0F14D1224B1B78DBB2012B0FD100221F4B1A700422214B1A704722214B1A700122204B1A7002E00122D1
:400400001F4B1A70164B1B78DBB2012B09D1154B1B78DBB2012B04D10023114A1370114A1370184B1B78DBB2012B09D10D4B1B78DBB2012B04D10023124A1370094A137007
:40044000104B1B78DBB2012B09D1054B1B78DBB2012B04D100230B4A1370014A137008BDAE81FF1FB081FF1F6781FF1FAD81FF1FB281FF1FAC81FF1FA981FF1FAF81FF1FDC
:40048000AA81FF1FAB81FF1F08B50122024B1A7000F096FD08BD00BF5481FF1F1F4B1B78012B39D110B500F05DFD1C4C6080002000F052FD0023237063884EF27762934280
:4004C00010D80121164A1170C3F56A43603303EB83039BB2134A1380128892B21249134800F01EFE0D4B5B884EF27862934210D902210B4A1170C3F56A43603303EB830350
:400500009BB2084A1380128892B20749074800F007FE00F001FD10BD704700BF5481FF1FA881FF1F6481FF1F6C1900006881FF1F2DE9F041434E304600F00CFC424F3846C8
:4005400000F008FC414800F005FC384600F002FC3F4C204600F0FEFB3E4800F0FBFB3E4800F0F8FB204600F0F5FB3C4800F0F2FB3B4D284600F0EEFBDFF82881404600F086
:40058000E9FB284600F0E6FB364800F0E3FB284600F0E0FB204600F0DDFB334800F0DAFB284600F0D7FB404600F0D4FB284600F0D1FB2E4800F0CEFB284600F0CBFB2046CD
:4005C00000F0C8FB2A4800F0C5FB2A4800F0C2FB294800F0BFFB294D284600F0BBFB284800F0B8FB284600F0B5FB264800F0B2FB284600F0AFFB204600F0ACFB224800F0D7
:40060000A9FB224800F0A6FB204600F0A3FB384600F0A0FB304600F09DFB1D4800F09AFB1C4800F097FB1C4800F094FB1B4800F091FB304600F08EFB194800F08BFBBDE823
:40064000F08100BF7C1F000088190000D0190000181A0000601A0000A81A0000F01A0000381B0000C81B0000101C0000581C0000A01C0000E81C0000301D0000781D000035
:40068000C01D0000081E0000501E0000981E0000E01E0000301F0000801F0000D01F000024200000801B000008B5354800F052FB344800F04FFB344B1B7823B103F0FF0252
:4006C000012A04D006E0314800F044FB02E0304800F040FB2F4B1B78DBB2042B17D8DFE803F003070B0F13002B4800F033FB0EE02A4800F02FFB0AE0294800F02BFB06E0DD
:40070000284800F027FB02E0274800F023FB274B1B78DBB2042B17D8DFE803F003070B0F1300234800F016FB0EE0224800F012FB0AE0214800F00EFB06E0204800F00AFBE7
:4007400002E01F4800F006FB1E4B1B78DBB2012B07D013B1022B08D00AE01B4800F0FAFA06E01A4800F0F6FA02E0194800F0F2FA034800F0EFFA174800F0ECFA08BD00BF95
:400780004020000044200000B181FF1F74200000B02000006781FF1FE8200000282100004C2100007021000094210000AC81FF1FB8210000F8210000182200003C220000E2
:4007C000602200006681FF1F84220000C4220000E42200002420000010B5012802D0022817D010BD164C204600F0B4FA154800F0B1FA154800F0AEFA144800F0ABFA204654
:4008000000F0A8FA124800F0A5FA0022114B1A7010BD0B4C204600F09DFA0A4800F09AFA094800F097FA0C4800F094FA204600F091FA074800F08EFA0022064B1A7010BD38
:4008400040200000102300006881FF1F3C23000064230000A881FF1F84230000FEE700BFF0B40022174611E050F82760F3B226F0FF0608E001EB420511F812406D78A5556E
:400880000132013BDBB2002BF4D10137202FEBD9F0BC7047084B1B78DBB203F00701074A11701B0901321370C022054B1A704422A3F2E2231A707047CF0100496E58004068
:4008C000585B004008B50A46002100F020FC08BD08B500F011FC08BD38B50024394B1C80502202331A700B2202331A801823364A13701925023215800232137043F697233A
:400900000232138002321570023213802F4B1D704EF65F2202331A8002331D7004222C492C48FFF7D5FF02222B4B1A7008224FF040231A70032103F500731970274B1B78A3
:40094000DBB227490B70274B1A8041F25122023B1A800CE0244B1B7803F0010343EA440404F003044FF4F07000F08AFB013D0DB1032CEFD115B90320FFF770FF1B4B4FF41F
:4009800080721A8007221A70002219490A704820023108701A700222033B1A7004220A331A70144A137843F03F031370013A137843F001031370013A137843F08003137024
:4009C00038BD00BF8040004086400040924000405C080048004100400043004008010049A146004022420040254200400440004006400040A2430040012814D810B440006F
:400A0000C0B2094B53F820101A18147C0A7822430A700130C0B253F820201844017C13780B43137010BC7047B0230000012816D810B44000C0B20A4B53F820101A18147C7A
:400A40000A7822EA04020A700130C0B253F820201844017C137823EA0103137010BC7047B023000038B572B6394A137843F00403137000240BE0374863001A195100014452
:400A80000A46898C106AFFF71DFF0134E4B2092CF1D900240CE02F48A20011194B000344B3F86420196ED86DFFF712FF0134E4B2022CF0D928494FF09040FFF7D1FE0A245F
:400AC000264B1C70264A137843F0020313701032137843F002031370224D2B7843F040032B70A2F58632513A137843F01003137008221D491D48FFF7EBFE22461C491D4864
:400B0000FFF7E6FE22461C491C48FFF7E1FE22461B491C48FFF7DCFE08221B491B48FFF7D7FE1B4A137843F008031370194C61232370FFF7D1FE812323700122164B1A70E2
:400B4000FFF7A8FE0E2229461448FFF7C1FE38BDE8460040B0230000840000488358004003500140A0430040280800480251004030080048C05100403C080048105100404C
:400B800048080048205100405408004832510040224300400048004004000840B043004008B500F07DFA03680C2B00D1FEE7FEE708B5094B1A681044084BC31A802B02DCD8
:400BC000054B186005E000F06BFA0C2303604FF0FF32104608BD00BFCC80FF1FB881FF1F08B5104E104D16E029686B68AC68002204E051F8040B43F8040B0432A242F8D1E5
:400C0000E868002203E0002143F8041B04328242F9D11035013E002EE6D100F047FAFFF731FAFEE7010000008424000008B5104A104B1A60104A136843F4007313600023D6
:400C40000AE0032B03D80D4A52F8231000E00C490C4A42F8231001332F2BF2D90A4B1A780A4B1A70074A0A4B1A60FFF7FBFE08BD0004FA050CED00E014ED00E00000000005
:400C8000A10B00000080FF1FBC760040C080FF1F08ED00E07222084B1A702022A3F580731A700622A2331A70472210331A7000224D331A70704700BF8965004010B500F03B
:400CC000E7F904460A4A137843F020031370A2F58072137843F010031370FF32137843F01003137000F002F9204600F0D5F910BD9965004008B5054B1B7823B9FFF7CAFF5B
:400D00000122024B1A70FFF7D9FF08BD5881FF1F084B1B78DBB213F0200F06D0064A1078C0B213F01E0F02D17047002070470020704700BF6964004049650040034B1B7867
:400D400013F0040FFAD1024B18707047686500404865004038B5074B1B782BB938BDFFF7EDFF0134A4B201E005460024285D0028F5D138BD5881FF1F014B1B685865704702
:400D800008ED00E04001C0B2014B1870704700BF05E400E02022014B1A60704700E100E02022014B1A60704780E100E010B50446FFF7F6FF2046FFF7DFFF0720FFF7E2FFE6
:400DC000FFF7E8FF10BD00BF024A137843F080031370704778640040014B1870704700BF08640040014B1870704700BF48640040014B1870704700BF28640040014B187091
:400E0000704700BF38640040014B1870704700BF88640040014B1878704700BF68640040014B1878704700BF5864004008B501E0FFF7F6FFFFF7EEFF10F0100FF8D108BD25
:400E400010B5134A137803F0C00343F024031370104C237843F001032370C720FFF7BCFFC720FFF7BFFF0020FFF7C2FF0020FFF7C5FF0020FFF7C8FF00F00AF9237843F0EF
:400E80001003237000F008F9FFF7D0FF10BD00BF786400409864004008B5054B1B7823B9FFF7CEFF0122024B1A70FFF78DFF08BD5A81FF1F10B5002404E02046FFF7B6FD9D
:400EC0000134E4B2012CF8D9FF22014B1A7010BDD080FF1F10B50446FFF7ECFF2046FFF78BFD014B1C7010BDD080FF1F054A137843F0040313701032137843F004031370EF
:400F0000704700BFA2430040024A137843F080031370704774640040024A137803F07F031370704774640040014B1870704700BF84640040014B1878704700BF64640040CD
:400F4000014B1880704700BF48680040014B188880B2704788680040014B1880704700BF08680040024B1B78024B188880B27047046400408868004008B501E0FFF7E6FF11
:400F8000FFF7D8FF10F0080FF8D108BD08B54EF65F20FFF7D5FF4EF65F20FFF7DDFF00F077F8064A137843F01003137000F074F8FFF7E2FF0020FFF7B7FF08BD94640040E1
:400FC00008B5054B1B7823B9FFF7E0FF0122024B1A70FFF799FF08BD5B81FF1F014B1B685864704708ED00E04001C0B2014B1870704700BF01E400E00222014B1A607047DF
:4010000000E100E00222014B1A60704780E100E010B50446FFF7F6FF2046FFF7DFFF0720FFF7E2FFFFF7E8FF10BD00BF014B1B681864704708ED00E04001C0B2014B187014
:40104000704700BF00E400E00122014B1A60704700E100E00122014B1A60704780E100E010B50446FFF7F6FF2046FFF7DFFF0720FFF7E2FFFFF7E8FF10BD00BF0000000059
:401080000230800803D000BF01380046FCD17047EFF3108072B6704780F31088704700BF014B1868704700BF3481FF1F0E4B70B51E460E4C0025E41AA410A54204D056F8DE
:4010C000253098470135F8E701F0CAF9084B094C1E46E41AA4100025A54204D056F8253098470135F8E770BD6C2400006C2400006C2400007424000010B5431E0A44914202
:4011000004D011F8014B03F8014FF8E710BD03460244934202D003F8011BFAE7704700000EB400B54FF402719CB0ADF814106FF00041049107914FF6FF711DAB02900690F6
:40114000084853F8042BADF81610006802A9019300F064F8029B00221A701CB05DF804EB03B070473481FF1F2DE9F0478E6882469E420C46914698463ED88A8912F4906F31
:401180003AD02568096902236F1A656905EB450595FBF3F57B1C43449D4238BF1D4653050FD5294600F040FB064698B13A462169FFF7A2FFA38923F4906343F08003A38185
:4011C00013E02A4600F08EFB064670B92169504600F0DEFA0C23CAF80030A3894FF0FF3043F04003A381BDE8F08726613E44266046466561ED1BA560464528BF46464946CA
:401200003246206800F0A8FAA36800209B1BA36023681E442660BDE8F08700002DE9F04F9DB003938B8980461C060D4616460DD50B695BB9402100F0F7FA2860286118B938
:401240000C23C8F80030CDE040236B610023099320238DF82930DFF89CB130238DF82A3037463C4614F8013B1BB9B7EB060910D003E0252BF9D02746F3E74B4632462946D6
:401280004046FFF771FF013000F0A780099B4B4409933B78002B00F0A08000234FF0FF3204930793059206938DF853301A930126052221784E4800F041FA671C049B38B1E1
:4012C0004B4A3C46801A06FA00F018430490EFE7D90644BF20228DF853201A0744BF2B228DF8532022782A2A03D0079A00210A200BE0039A111D12680391002A10DA5242EA
:4013000043F00200079204900BE027463B780134303B092B03D800FB02320121F5E701B107923B782E2B1ED17B782A2B0AD1039B02371A1D1B680392002BB8BF4FF0FF33C2
:40134000059310E0002319460593781C0A2407463A780130303A092A03D804FB01210123F5E703B1059103223978224800F0E6F940B14023CBEB000003FA00F0049B013719
:4013800018430490397806221B487E1C8DF8281000F0D4F988B1194B33B9039B073323F007030833039314E003AB00932A46144B04A94046AFF3008007E003AB00932A46AE
:4013C0000F4B04A9404600F093F8B0F1FF3F824603D0099B5344099342E7AB895B0601D4099801E04FF0FF301DB0BDE8F08F00BF2C24000032240000362400000000000061
:40140000691100002DE9F04791461F460A698B6806469342B8BF1346C9F8003091F843200C46DDF8208012B10133C9F800302368990642BFD9F800300233C9F800302568E7
:4014400015F0060510D104F1190A07E00123524639463046C04701301AD00135E368D9F800209B1A9D42F1DB94F843302268003318BF012392060FD5E118302081F843009F
:401480005A1C94F845102244023382F8431003E04FF0FF30BDE8F08704F1430239463046C0470130F4D02268D9F80050E36802F00602042A08BF5D1B2269A3680CBF25EA08
:4014C000E57500259342C4BF9B1AED184FF000091A344D4509D00123224639463046C0470130D5D009F10109F3E70020BDE8F0872DE9F04317460A7E85B06E2A98460646BD
:401500000C460C9B01F1430E00F0AE8011D8632A22D009D8002A00F0BB80582A40F0CA8081F84520834955E0642A1ED0692A1CD0C0E0732A00F0B08009D86F2A2ED0702A6E
:4015400040F0B8800A6842F020020A603EE0752A24D0782A3AD0ADE01A6801F14205111D1960136884F84230A8E021681A6811F0800F02D0111D196008E011F0400F02F157
:401580000401196002D0B2F9003000E01368002B3CDA2D225B4284F8432037E021681A6811F0800F02D0111D196007E011F0400F02F10401196001D0138800E01368227E5F
:4015C0005C496F2A14BF0A2208221BE078225A4984F845202268186812F0800F00F104051D6003D1550601D5038800E00368D00744BF42F0200222601BB9226822F020023C
:4016000022601022002084F8430001E049490A226568002DA56008DB206820F0040020602BB9002D7DD175460CE0002B79D07546B3FBF2F002FB1033CB5C05F8013D0346CA
:401640000028F5D1082A0BD12368DA0708D5236962689A42DEBF302305F8013C05F1FF35C5EB0E0323612EE008681A6810F0800F496903D0101D1860136808E010F0400FEF
:4016800002F104001860136801D0198000E0196000232361754616E01A68111D1960156800216268284600F049F808B1401B6060636804E004F1420584F8422001232361B0
:4016C000002384F84330CDF800803B4603AA21463046FFF797FE013002D14FF0FF3026E023692A4639463046C0470130F5D023689B0710D5002504F1190907E001234A46AE
:4017000039463046C0470130E7D00135E368039A9B1A9D42F2DBE068039B9842B8BF184605E00B7804F1420584F842308AE705B0BDE8F0833D2400004E24000010B5C9B2CE
:4017400002449042034605D01C7801308C42F8D1184610BD002010BD884210B501EB020301D8421E0BE09842FBD28118D21AD34204D013F8014D01F8014DF8E710BD9942DF
:4017800004D011F8014B02F8014FF8E710BD000038B50546002944D051F8043C0C1F002BB8BFE41800F0D4F81E4A1368114613B96360146030E0A3420DD92268A018834268
:4017C00001BF18685B681218226063600C6023E0A24203D813465A68002AF9D118681918A1420BD12168014458188242196013D110685268014419605A600DE002D90C23CA
:401800002B6009E021686018824201BF106852680918216062605C602846BDE8384000F098B838BD6081FF1F70B5CD1C25F0030508350C2D38BF0C25002D064601DBA94295
:4018400002D90C23336046E000F082F8234B1C681A462146A1B10B685B1B0ED40B2B03D90B60CC18CD501EE08C420BBF63684B681360636018BF0C4615E00C464968E9E7AC
:40188000174C23681BB9304600F052F820602946304600F04DF8431C18D0C41C24F00304A0420DD12560304600F053F804F10B00231D20F00700C31A0ED05A42E25070BDD7
:4018C000211A304600F034F80130EBD10C233360304600F03EF8002070BD00BF6081FF1F5C81FF1FF8B5074615460E4621B91146BDE8F840FFF798BF1AB9FFF749FF284647
:40190000F8BD00F027F885420ED929463846FFF78BFF044650B131462A46FFF7EDFB31463846FFF735FF01E03046F8BD2046F8BD38B5064C0023054608462360FFF738F9CD
:40194000431C02D1236803B12B6038BDB481FF1F7047704751F8040C0028BEBF091851F8043CC01804387047000000002020202020456C61707365642074696D653A202596
:40198000646D73200D0A000020202020203D3D3D3D3D3D3D3D3D3D3D3D3D3D3D3D3D3D3D3D3D3D3D3D3D3D3D3D3D3D3D3D3D3D3D3D3D3D3D3D3D3D3D3D3D3D3D3D3D3D3DE5
:4019C0003D3D3D3D3D3D3D3D3D3D3D3D0D0A000020202020207C202F2F2F2F2F2F2F2F2F2F2F2F2F2F2F20434F4E54524F4C2050414E4E454C20494E535452554354494FA4
:401A00004E53202F2F2F2F2F2F2F2F2F2F2F2F2F2F2F207C0D0A000020202020207C2020202020202020202020202020202020202020202020202020202020202020202015
:401A40002020202020202020202020202020202020202020202020202020207C0D0A000020202020207C20203F202D2052657475726E2074686520636F6E74726F6C2070D9
:401A8000616E6E656C2020202020202020202020202020202020202020202020202020202020207C0D0A000020202020207C20206F202D2053756D6D617279206F66207416
:401AC0006865206C617474657220636F6D6D616E647320656E746572656420202020202020202020202020202020207C0D0A000020202020207C202066202D20436F6E668C
:401B0000696775726174696F6E206F662074686520616363656C65726F6D6574657227732046554C4C205343414C452052414E474520207C0D0A000020202020207C2020D1
:401B4000202020202B2D2D2D2D2D2D2D2D2B2B2D2D2D2D2D2D2D2D2D2B2D2D2D2D2D2D2D2D2D2B2D2D2D2D2D2D2D2D2D2B2D2D2D2D2D2D2D2D2D2B202020207C0D0A0000E9
:401B800020202020207C2020202020207C20206368617220207C7C2020202031202020207C2020202032202020207C2020202033202020207C2020202034202020207C20DD
:401BC0002020207C0D0A000020202020207C2020202020207C20204653522020207C7C20202B2D32672020207C20202B2D34672020207C20202B2D38672020207C20202B7D
:401C00002D31366720207C202020207C0D0A000020202020207C202070202D20436F6E66696775726174696F6E206F662074686520616363656C65726F6D657465722773DE
:401C40002053414D504C494E4720465245512E202020207C0D0A000020202020207C2020202020207C20205346202020207C7C20202031487A2020207C2020203130487AFF
:401C800020207C2020203235487A20207C2020203530487A20207C202020207C0D0A000020202020207C202076202D20537461727420454550524F4D2064617461207669DF
:401CC0007375616C697A6174696F6E2020202020202020202020202020202020202020202020207C0D0A000020202020207C202075202D2053746F7020454550524F4D20B2
:401D0000646174612076697375616C697A6174696F6E202020202020202020202020202020202020202020202020207C0D0A000020202020207C20206C202D2041646469FD
:401D400074696F6E616C2073656E736F727320646174612073746F72696E672020202020202020202020202020202020202020202020207C0D0A000020202020207C2020E0
:401D800020202020202020202020202020202B2D2D2D2D2D2D2D2D2B2B2D2D2D2D2D2D2D2D2D2B2D2D2D2D2D2D2D2D2D2B20202020202020202020202020207C0D0A0000A7
:401DC00020202020207C202020202020202020202020202020207C20206368617220207C7C2020202030202020207C2020202031202020207C20202020202020202020207C
:401E00002020207C0D0A000020202020207C202020202020202020202020202020207C202053454E5320207C7C2020204C44522020207C202020504F542020207C202020B9
:401E400020202020202020202020207C0D0A000020202020207C202062202D205374617274206163717569736974696F6E2066726F6D20616363656C65726F6D657465721E
:401E800020616E6420646174612073746F72696E6720207C0D0A000020202020207C202073202D2053746F70206163717569736974696F6E2066726F6D20616363656C6520
:401EC000726F6D6574657220616E6420646174612073746F72696E672020207C0D0A000020202020205741524E494E4721213A20646F204E4F5420656E74657220636F6DEB
:401F00006D616E6473206C696B652027504C462031323327206275742072617468657220275031204C3220463327200D0A00000020202020206578616D706C6520313A201E
:401F400069662027504C4620313233272061726520656E74657265642C20502C4C20616E6420462073746174757320666C616773206172652072657365742E200D0A00006F
:401F800020202020206578616D706C6520323A20696620274C332050312720202061726520656E74657265642C2050202020616E64204C2073746174757320666C61677361
:401FC000206172652072657365742E200D0A000020202020206578616D706C6520333A206966202750352032272020202061726520656E74657265642C2074686520736154
:402000006D706C696E67206672657175656E63792069732073657420746F203130487A2E200D0A002020202020456E74657220746865206E657720636F6D6D616E643A2052
:40204000200D0A00202020202053756D6D617279206F6620746865206C6174746572206F7074696F6E7320656E74657265643A200D0A000020202020202020202020476509
:402080006E6572616C2073746174653A20746865206163717569736974696F6E206973204E4F542072756E6E696E67200D0A00002020202020202020202047656E65726172
:4020C0006C2073746174653A20746865206163717569736974696F6E2069732072756E6E696E67200D0A00002020202020202046756C6C205363616C652052616E67653AB9
:40210000204E4F54206D6F6469666965642079657420696E20746869732073657373696F6E200D0A000000002020202020202046756C6C205363616C652052616E67653ACF
:40214000202B2D3267200D0A000000002020202020202046756C6C205363616C652052616E67653A202B2D3467200D0A000000002020202020202046756C6C205363616CF5
:40218000652052616E67653A202B2D3867200D0A000000002020202020202046756C6C205363616C652052616E67653A202B2D313667200D0A000000202020202053616D25
:4021C000706C696E67204672657175656E63793A204E4F54206D6F6469666965642079657420696E20746869732073657373696F6E20200D0A000000202020202053616DCA
:40220000706C696E67204672657175656E63793A2031487A200D0A00202020202053616D706C696E67204672657175656E63793A203130487A200D0A00000000202020204D
:402240002053616D706C696E67204672657175656E63793A203235487A200D0A00000000202020202053616D706C696E67204672657175656E63793A203530487A200D0A12
:40228000000000002020202020204164646974696F6E616C2053656E736F723A204E4F54206D6F6469666965642079657420696E20746869732073657373696F6E200D0A83
:4022C000000000002020202020204164646974696F6E616C2053656E736F723A204C4452200D0A002020202020204164646974696F6E616C2053656E736F723A20506F7438
:402300006574696F6D65746572200D0A000000002020202020544845205055534820425554544F4E20484153204245454E2050524553534544200D0A000000002020202098
:40234000205468652027636F756E7465722720686173206265656E207265736574200D0A000000002020202020456E74657220746865206E657720636F6D6D616E643A205C
:402380000D0A0000202020202054686520646174612073746F72696E6720686173206265656E20726573746172746564200D0A003D510040005B00403D510040005B004058
:4023C00008800440035B00402443004040000000C84900401900405100403000F0510040100000000140000280020140000200050140000B00140140000800400140000A4F
:40240000004C01400002005001402000605200402007004806000002014028070048800080040140A807004880004300232D302B2000686C4C0065666745464700303132BA
:402440003334353637383941424344454600303132333435363738396162636465660000F8B500BFF8BC08BC9E4670474D0000002D0C0000F8B500BFF8BC08BC9E46704767
:402480002900000098240000C880FF1F70000000800000000000000000000000B881FF1FFF000000000000000000000000000000000000000000000000000000000000008B
:4024C000000000002A24000000000000000000000000000000000000000000000000000000000000000000000000000000000000000000000000000000000000000000008E
:4025000000000000D480FF1F000000000000000000000000000000000000000000000000000000000000000000000000000000000000000000000000000000000000000029
:40254000000000000000000000000000000000000000000000000000000000000000000000000000000000000000000000000000000000000000000000000000000000005B
:40258000000000000000000000000000000000000000000000000000000000000000000000000000000000000000000000000000000000000000000000000000000000001B
:4025C00000000000000000000000000000000000000000000000000000000000000000000000000000000000000000000000000000000000000000000000000000000000DB
:40260000000000000000000000000000000000000000000000000000000000000000000000000000000000000000000000000000000000000000000000000000000000009A
:020000040003F7
:0200000480007A
:4000000003520040046400400265004010020140360301401F04014041050140040601400F0701405408014045090140070B0140020D01400B1501400A1701405F18014038
:400040004C190140611A0140501B014007400140114101400442014005430140044401400745014007460140044701400748014012490140104C01400F4D0140065001401A
:4000800003510140002001201102840D850F880F8938880F897286018E06900692019A039E05AE02B407BA20D440D604D804DB04DC02DD10DF010322056006200754088197
:4000C0000A080C200D020EE00F0112021514160117011A081D541F01262027022E6036203706452246204C014D204F055420568057045C405D015F2461056309644067022A
:400100008001854088408A208D01C0F5C2FBC4F1CA30CCE0D0E0D230D6F0D89FE2A0E644EE020D01120115012A01300131013E01404349FF4AFF4BFF4F01501852805401E0
:40014000580459045A045B045C305D445F016040624064406540668068806A806C806E800501071609020EA21204151417011A401D211E201F042040266827142D802F84A8
:400180003104366837013B803D143E8041024308450246044D0A56045708590A5A4067016D146E026FC17102758076017702804095149A809C819E019F55A520A652A722A4
:4001C000A840A910AD21AE04B280B320C0F0C2B8C472CAB0CCF2CE78D0A3D60BD810E404EC0838803E4058045F011F8087408B028D0497819C819D04A602A722AE40B62062
:40020000B710E208E602EC02011203200518072209200F801138120413041520160117181B011D401F062780280329282F01313E3204338034023501360137403F544030AC
:40024000410545D046024715483649FF4AFF4BFF4DA04F04501852805407580459045A045B045C235D335F01604062C06440654066C068C06AC06CC06EC0820888018E08E6
:4002800091019304950496049703AC07AF08B008B102B202B308B401B501B604B704BE01D418D604D804D904DB04DC53DD20DF010090028009080C020D081201160818125A
:4002C0001B111C021D28221A2302240425802604274028022C102E202F02320A3404362037413D243E013F80441045084D014F80560957405A025CA05D015E086004634251
:40030000740279047A108520874088018A018E089402982299A0A210A308AF08B5A0C00BC234C441CA78CCF3CEF0D040D210D6F1D80DE210E480E810EC40802088029402DB
:40034000A210A801AE10EC04E604EE02848088018F229C81A722E008E401E602EA01EC10EE0282028F0197019C81A602A722B780E201E680EE061502170D180119051B0AA5
:4003800029092B062D032F0C3401350F3B203E104023410645EE46B0470C481B49FF4AFF4BFF4EF04F44500C5401580459045A045B045C105D225F0166C06A406B028002E7
:4003C0008231850289028D0295049701980199049A0E9B019C049D059E11A105A407A807B102B220B304B407B501B618B920BA02BE40BF04C064C105C202C401C5C0C7E09D
:40040000C822C9FFCAFFCBFFCC62CDA0CEF0CF41D00CD602D712D804D904DA04DB04DC22DD22DF01E640E702E910EA30EB10ED10EE10EF12000208100A050F081114160882
:400440001720180119081A841E0820402224270429012D802F08315832403520370439984049428044044504484049404A0A4D014F28530256285A085D015E485F20699C49
:40048000708073147A107B108110820488088A808D018E088F04960299A09C049E209F01A210A308A440A510A6A0A702A880AA10AB10AF02B180C008C243C406CA31CC6E49
:4004C000CE0ED06DD22CD6F2E690E840000101440403050809180C130D800E0C101F11FF140C153C161317C2180F19C01A101C021D10200821E7231824042704280C291CE0
:400500002BE12E132FE3300F31C0331F341C37383A223B08580459045C225F018040822084138580860C871388038A148B088C208E40912C920893439460970C99719A1508
:400540009B0EA00AA214A413A604A860A971AB06B010B20FB3C0B530B660B70FB928BA08BB80BE01BF10C003C704C9FFCA07CBFFCC40CD20CEF0CF05D008D804D904DA0432
:40058000DC22DD02DF01E040E1A8E240E320004202200504064A09080A850C020D040F0810811314142015101701184019111A041D041E411F4821082281242026082709FF
:4005C000280129192A802C042F083090310832223420361837013A423B943D283F0847084F085604870888018A028B018C128F049118928093149643981099089A889C04BA
:400600009D119E049F01A080A110A212A401A50CA680C0FDC27FC47FCA2FCCEFCE6FD040E008E240E401E660EA01EC10EE0230023380350836403B40CCF0CE103220630217
:400640006608870189088A088C029D08A402A640A780AF40CC10D640D880E610EE403E10A660A780CE2086209610A660A780E64013027F80C408DE01012853018108A7802A
:40068000AF02C00AD401450889209920A780AB01D001E2048B01A508A780E00125108B029610AB80AE40C820EE60122016407B027E01822086409202A302AA10AE01B51066
:4006C000C430DC80DE20E010E480EA80EE401328150263027B107F408B08A004A301A508B004B780C40ED602DE03E601E806104074048310874088409780A004A710AB20C5
:40070000AD01B508C408DE04E201EC08003E08060A1A0C2C10061C0600FF010F03C00000828000004300000084000000070038000A00100001000000560E09000405003A44
:400740006000001000008000040080008400000080230404840400390200800008307F0F80800000000015006403200005DEBC0F1FFFFFFF2200F00804000000090004003C
:4007800004040404111100010000C00040011011C00100114001400100000000000000000000000000000000100068000818130211022618EC820000171840020133064435
:4007C00000C10038EC9C00036C1A8000EC000000E8180400001A000078000713800F00E000000AA0000010004200000000EC000213FFFFFF008303011800000000000220A9
:400800000404040411140001400040004040800080008000800080000000000000000000000000000000000000606000600000008300508083008300000000004000004BFE
:400840004B004000000000001600011612000200000000000000000000000C0025001801000000000000000000000000000000000000000000000000000000000000000062
:400880000000000000000000000000000000000000000000000000000000000000000000000000000000000000000000000000000000000000000000000000000000000038
:4008C00000000000000000000000000000000000000000000000000000000000000000000000000000000000000000000000000000000000000000000000000000000000F8
:4009000000000000000000000000000000000000000000000000000000000000000000000000000000000000000000000000000000000000000000000000000000000000B7
:400940000000000000000000000000000000000000000000000000000000000000000000000000000000000000000000000000000000000000000000000000000000000077
:0200000490006A
:0400000000004005B7
:0200000490105A
:04000000BC90ACAF55
:0200000490303A
:0200000081403D
:0200000490402A
:4000000000000000000000000000000000000000000000000000000000000000000000000000000000000000000000000000000000000000000000000000000000000000C0
:400040000000000000000000000000000000000000000000000000000000000000000000000000000000000000000000000000000000000000000000000000000000000080
:400080000000000000000000000000000000000000000000000000000000000000000000000000000000000000000000000000000000000000000000000000000000000040
:4000C0000000000000000000000000000000000000000000000000000000000000000000000000000000000000000000000000000000000000000000000000000000000000
:0200000490501A
:0C00000000012E16106900012E2491A9A9
:00000001FF