:400000000080002011000000450900004509000008B5044B1A6803F53F5302331A6000F099FC00BFFA46004010B5054C237833B9044B13B10448AFF300800123237010BD46
:400040003081FF1F00000000000C0000084B10B51BB108490848AFF300800848036803B910BD074B002BFBD0BDE81040184700BF000000003481FF1F000C0000C880FF1F1A
:400080000000000008B50023114A1370114A1370114A1370114A1370114A1370114A1370114A1370114A137062B600F0DFFC104800F038FD00F090F90C4B1B78DBB2012BF4
:4000C000FAD100F03FFA0022084B1A70F4E700BF5381FF1F5481FF1F5181FF1F5581FF1F4F81FF1F5281FF1F4E81FF1F5081FF1FF500000008B500F0C7FC924B18703138BC
:40010000422800F23281DFE810F057009A00DA00FB00300130013001300130013001300130013001300130013001300143003001300130014B003001300130013001300190
:400140005300300130012D014F003001300147003001300130013001300130013001300130013001300130013001300143003001300130014B0030013001300130013001E0
:400180005300300130012D014F0030013001470001226D4B1A70E8E000226B4B1A70E4E001226A4B1A70E0E00122694B1A70DCE00122684B1A70D8E0644B1B78DBB2012BBF
:4001C0000FD1634B1B7813F0FF0F0AD1614B1B7813F0FF0F05D100225C4B1A7001225E4B1A705A4B1B7813F0FF0F0FD1584B1B78DBB2012B0AD1574B1B7813F0FF0F05D114
:400200000022534B1A700122544B1A704F4B1B7813F0FF0F40F0A9804D4B1B7813F0FF0F40F0A3804B4B1B78DBB2012B40F09D800022484B1A700122494B1A7095E0434B50
:400240001B78DBB2012B0FD1414B1B7813F0FF0F0AD1404B1B7813F0FF0F05D100223B4B1A7002223C4B1A70384B1B7813F0FF0F0FD1374B1B78DBB2012B0AD1354B1B7818
:4002800013F0FF0F05D10022314B1A700222334B1A702E4B1B7813F0FF0F66D12C4B1B7813F0FF0F61D12B4B1B78DBB2012B5CD10022284B1A700222294B1A7055E0234B8F
:4002C0001B78DBB2012B0AD1214B1B7813F0FF0F05D100221D4B1A7003221F4B1A701B4B1B7813F0FF0F40D1194B1B78DBB2012B3BD10022164B1A700322184B1A7034E0BA
:40030000124B1B78DBB2012B0AD1114B1B7813F0FF0F05D100220D4B1A7004220E4B1A700A4B1B7813F0FF0F1FD1094B1B78DBB2012B1AD10022064B1A700422074B1A70E3
:4003400013E000BF5681FF1F5581FF1F5381FF1F5481FF1F5181FF1F4F81FF1F5281FF1F4E81FF1F0122184B1A70184B1B78DBB2012B09D1164B1B78DBB2012B04D1002303
:40038000124A1370124A1370124B1B78DBB2012B09D10F4B1B78DBB2012B04D100230D4A13700B4A13700B4B1B78DBB2012B09D1064B1B78DBB2012B04D10023054A1370C9
:4003C000024A137008BD00BF5081FF1F5381FF1F5481FF1F5181FF1F2DE9F041414E304600F074FB404F384600F070FB3F4800F06DFB384600F06AFB3D4C204600F066FBE1
:400400003C4800F063FB204600F060FB3A4800F05DFB3A4D284600F059FBDFF82481404600F054FB284600F051FB354800F04EFB284600F04BFB204600F048FB314800F0EF
:4004400045FB284600F042FB404600F03FFB284600F03CFB2C4800F039FB284600F036FB204600F033FB294800F030FB284800F02DFB284800F02AFB274D284600F026FB25
:40048000264800F023FB284600F020FB244800F01DFB284600F01AFB204600F017FB214800F014FB204800F011FB204600F00EFB384600F00BFB304600F008FB1B4800F09D
:4004C00005FB1B4800F002FB1A4800F0FFFA1A4800F0FCFA304600F0F9FA184800F0F6FABDE8F081B0110000040C00004C0C0000940C0000DC0C0000240D00006C0D00000F
:40050000FC0D0000440E00008C0E0000D40E00001C0F0000640F0000AC0F0000F40F00003C10000084100000CC1000001411000064110000B41100000412000058120000ED
:40054000B40D000008B5354800F0C0FA344800F0BDFA344B1B7823B103F0FF02012A04D006E0314800F0B2FA02E0304800F0AEFA2F4B1B78DBB2042B17D8DFE803F0030771
:400580000B0F13002B4800F0A1FA0EE02A4800F09DFA0AE0294800F099FA06E0284800F095FA02E0274800F091FA274B1B78DBB2042B17D8DFE803F003070B0F130023489E
:4005C00000F084FA0EE0224800F080FA0AE0214800F07CFA06E0204800F078FA02E01F4800F074FA1E4B1B78DBB2012B07D013B1022B08D00AE01B4800F068FA06E01A487F
:4006000000F064FA02E0194800F060FA034800F05DFA174800F05AFA08BD00BF54120000781200005581FF1FA8120000E41200004F81FF1F1C1300005C1300008013000073
:40064000A4130000C81300005281FF1FEC1300002C1400004C14000070140000941400004E81FF1FB8140000F81400001815000058120000FEE700BFF0B40022174611E018
:4006800050F82760F3B226F0FF0608E001EB420511F812406D78A5550132013BDBB2002BF4D101371F2FEBD9F0BC7047084B1B78DBB203F00701074A11701B0901321370A3
:4006C000C022054B1A704422A3F2E2231A707047CF0100496E580040585B004008B50A46002100F084FA08BD08B500F075FA08BD38B50024374B1C80502202331A700B221C
:4007000002331A801823344A13701925023215800232137043F69722304B1A8002331D704EF65F2202331A8002331D7004222C492C48FFF7D9FF02222B4B1A7008224FF067
:4007400040231A70032103F500731970274B1B78DBB227490B70274B1A8041F25122023B1A800CE0244B1B7803F0010343EA440404F003044FF4F07000F0F2F9013D0DB19F
:40078000032CEFD115B90320FFF774FF1B4B4FF480721A8007221A70002219490A704820023108701A700222033B1A7004220A331A70144A137843F01F031370013A13780D
:4007C00043F001031370013A137843F08003137038BD00BF80400040864000408C400040FC070048004100400043004008010049A1460040224200402542004004400040E3
:4008000006400040A243004038B572B6394A137843F00403137000240BE0374863001A19510001440A46898C106AFFF757FF0134E4B2092CF1D900240CE02F48A20011192B
:400840004B000344B3F86420196ED86DFFF74CFF0134E4B2022CF0D928494FF09040FFF70BFF0A24264B1C70264A137843F0020313701032137843F002031370224D2B78ED
:4008800043F040032B70A2F58632513A137843F01003137008221D491D48FFF725FF22461C491D48FFF720FF22461C491C48FFF71BFF22461B491C48FFF716FF08221B4999
:4008C0001B48FFF711FF1B4A137843F008031370194C61232370FFF70BFF812323700122164B1A70FFF7E2FE0E2229461448FFF7FBFE38BDE84600404415000080000048D9
:400900008358004003500140A0430040C807004802510040D0070048C0510040DC07004810510040E807004820510040F40700483251004022430040004800400400084098
:40094000B043004008B500F01BF903680C2B00D1FEE7FEE708B5104E104D16E029686B68AC68002204E051F8040B43F8040B0432A242F8D1E868002203E0002143F8041B05
:4009800004328242F9D11035013E002EE6D100F0FDF8FFF777FBFEE701000000E415000008B5104A104B1A60104A136843F40073136000230AE0032B03D80D4A52F8231016
:4009C00000E00C490C4A42F8231001332F2BF2D90A4B1A780A4B1A70074A0A4B1A60FFF713FF08BD0004FA050CED00E014ED00E000000000450900000080FF1FBC760040D8
:400A0000C080FF1F08ED00E07222094B1A70202203F580731A700622A3F25F131A70472210331A70002203F251131A70704700BF8964004010B500F09BF804460A4A137852
:400A400043F02003137002F58072137843F0100313700232137843F01003137000F070F8204600F089F810BD9964004008B5054B1B7823B9FFF7C8FF0122024B1A70FFF776
:400A8000D9FF08BD4C81FF1F084B1B78DBB213F0200F06D0064A1078C0B213F01E0F02D17047002070470020704700BF6965004049650040034B1B7813F0040FFAD1024BB7
:400AC000187070476B6500404B65004038B5074B1B782BB938BDFFF7EDFF0134A4B201E005460024285D0028F5D138BD4C81FF1F014B1B681865704708ED00E04001C0B271
:400B0000014B1870704700BF04E400E01022014B1A60704700E100E01022014B1A60704780E100E010B50446FFF7F6FF2046FFF7DFFF0720FFF7E2FFFFF7E8FF10BD00BFA8
:400B4000054A137843F0040313701032137843F004031370704700BFA2430040000000000230800803D000BF01380046FCD17047EFF3108072B6704780F31088704700BF98
:400B8000014B1868704700BF2C81FF1F0E4B70B51E460E4C0025E41AA410A54204D056F8253098470135F8E700F00AFD084B094C1E46E41AA4100025A54204D056F825308B
:400BC00098470135F8E770BDCC150000CC150000CC150000D415000010B5431E0A44914204D011F8014B03F8014FF8E710BD03460244934202D003F8011BFAE770470000FC
:400C00000000000020202020203D3D3D3D3D3D3D3D3D3D3D3D3D3D3D3D3D3D3D3D3D3D3D3D3D3D3D3D3D3D3D3D3D3D3D3D3D3D3D3D3D3D3D3D3D3D3D3D3D3D3D3D3D3D3DF9
:400C40003D3D3D3D3D3D3D3D0D0A000020202020207C202F2F2F2F2F2F2F2F2F2F2F2F2F2F2F20434F4E54524F4C2050414E4E454C20494E535452554354494F4E53202F35
:400C80002F2F2F2F2F2F2F2F2F2F2F2F2F2F207C0D0A000020202020207C202020202020202020202020202020202020202020202020202020202020202020202020202013
:400CC00020202020202020202020202020202020202020202020207C0D0A000020202020207C20204F202D2073756D6D617279206F6620746865206C617474657220636F67
:400D00006D6D616E647320656E746572656420202020202020202020202020202020207C0D0A000020202020207C202066202D20636F6E66696775726174696F6E206F66DD
:400D40002074686520616363656C65726F6D6574657227732046554C4C205343414C452052414E474520207C0D0A000020202020207C2020202020202B2D2D2D2D2D2D2D80
:400D80002D2B2B2D2D2D2D2D2D2D2D2D2B2D2D2D2D2D2D2D2D2D2B2D2D2D2D2D2D2D2D2D2B2D2D2D2D2D2D2D2D2D2B202020207C0D0A000020202020207C202020202020C1
:400DC0007C20206368617220207C7C2020202031202020207C2020202032202020207C2020202033202020207C2020202034202020207C202020207C0D0A00002020202014
:400E0000207C2020202020207C20204653522020207C7C20202B2D32672020207C20202B2D34672020207C20202B2D38672020207C20202B2D31366720207C202020207C0A
:400E40000D0A000020202020207C202070202D20636F6E66696775726174696F6E206F662074686520616363656C65726F6D6574657227732053414D504C494E472046520C
:400E800045512E202020207C0D0A000020202020207C2020202020207C20205346202020207C7C20202031487A2020207C2020203130487A20207C2020203235487A20207B
:400EC0007C2020203530487A20207C202020207C0D0A000020202020207C202076202D20537461727420454550524F4D20646174612076697375616C697A6174696F6E205F
:400F000020202020202020202020202020202020202020202020207C0D0A000020202020207C202075202D2053746F7020454550524F4D20646174612076697375616C699B
:400F40007A6174696F6E202020202020202020202020202020202020202020202020207C0D0A000020202020207C20206C202D204164646974696F6E616C2073656E736FB3
:400F8000727320646174612073746F72696E672020202020202020202020202020202020202020202020207C0D0A000020202020207C2020202020202020202020202020FD
:400FC00020202B2D2D2D2D2D2D2D2D2B2B2D2D2D2D2D2D2D2D2D2B2D2D2D2D2D2D2D2D2D2B20202020202020202020202020207C0D0A000020202020207C20202020202019
:40100000202020202020202020207C20206368617220207C7C2020202031202020207C2020202032202020207C20202020202020202020202020207C0D0A000020202020B0
:40104000207C202020202020202020202020202020207C202053454E5320207C7C2020204C44522020207C202020504F542020207C20202020202020202020202020207C1E
:401080000D0A000020202020207C202062202D205374617274206163717569736974696F6E2066726F6D20616363656C65726F6D6574657220616E642064617461207374B4
:4010C0006F72696E6720207C0D0A000020202020207C202073202D2053746F70206163717569736974696F6E2066726F6D20616363656C65726F6D6574657220616E642091
:40110000646174612073746F72696E672020207C0D0A000020202020205741524E494E4721213A20646F204E4F5420656E74657220636F6D6D616E6473206C696B6520270A
:40114000504C462031323327206275742072617468657220275031204C3220463327200D0A00000020202020206578616D706C6520313A2069662027504C46203132332736
:401180002061726520656E74657265642C20502C4C20616E6420462073746174757320666C616773206172652072657365742E200D0A000020202020206578616D706C6586
:4011C00020323A20696620274C332050312720202061726520656E74657265642C2050202020616E64204C2073746174757320666C616773206172652072657365742E20D2
:401200000D0A000020202020206578616D706C6520333A206966202750352032272020202061726520656E74657265642C207468652073616D706C696E6720667265717540
:40124000656E63792069732073657420746F203130487A2E200D0A002020202020456E74657220746865206E657720636F6D6D616E643A2000000000202020202053756D15
:401280006D617279206F6620746865206C6174746572206F7074696F6E7320656E74657265643A200D0A00002020202020202020202047656E6572616C2073746174653A56
:4012C00020746865206163717569736974696F6E206973204E4F542072756E6E696E67200D0A00002020202020202020202047656E6572616C2073746174653A2074686585
:40130000206163717569736974696F6E2069732072756E6E696E67200D0A00002020202020202046756C6C205363616C652052616E67653A204E4F54206D6F6469666965C0
:40134000642079657420696E20746869732073657373696F6E200D0A000000002020202020202046756C6C205363616C652052616E67653A202B2D3267200D0A0000000063
:401380002020202020202046756C6C205363616C652052616E67653A202B2D3467200D0A000000002020202020202046756C6C205363616C652052616E67653A202B2D38AF
:4013C00067200D0A000000002020202020202046756C6C205363616C652052616E67653A202B2D313667200D0A000000202020202053616D706C696E6720467265717565AD
:401400006E63793A204E4F54206D6F6469666965642079657420696E20746869732073657373696F6E20200D0A000000202020202053616D706C696E672046726571756597
:401440006E63793A2031487A200D0A00202020202053616D706C696E67204672657175656E63793A203130487A200D0A00000000202020202053616D706C696E672046728A
:40148000657175656E63793A203235487A200D0A00000000202020202053616D706C696E67204672657175656E63793A203530487A200D0A000000002020202020204164AE
:4014C000646974696F6E616C2053656E736F723A204E4F54206D6F6469666965642079657420696E20746869732073657373696F6E200D0A00000000202020202020416451
:40150000646974696F6E616C2053656E736F723A204C4452200D0A002020202020204164646974696F6E616C2053656E736F723A20506F746574696F6D65746572200D0A65
:40154000000000003D510040005B00403D510040005B004008800440035B00402443004040000000C84900401900405100403000F051004010000000014080080009014039
:40158000000700140140800400190140000300400140000A004C0140000200500140200060520040C0060048060080080140C806004880008018014048070048800043008B
:4015C000F8B500BFF8BC08BC9E4670474D000000A1090000F8B500BFF8BC08BC9E46704729000000F8150000C880FF1F6800000028000000000000000000000000000000CA
:4016000000000000000000000000000000000000000000000000000000000000BE1500000000000000000000000000000000000000000000000000000000000000000000D7
:4016400000000000000000000000000000000000000000000000000000000000CC80FF1F000000000000000000000000000000000000000000000000000000000000000000
:40168000000000000000000000000000000000000000000000000000000000000000000000000000000000000000000000000000000000000000000000000000000000002A
:4016C00000000000000000000000000000000000000000000000000000000000000000000000000000000000000000000000000000000000000000000000000000000000EA
:4017000000000000000000000000000000000000000000000000000000000000000000000000000000000000000000000000000000000000000000000000000000000000A9
:401740000000000000000000000000000000000000000000000000000000000000000000000000000000000000000000000000000000000000000000000000000000000069
:020000040003F7
:0200000480007A
:400000000452004003640040026500400203014002050140010701401E0801404B0901405F0A0140470B01404E0C0140340D014004150140021701400E1801404B190140EF
:400040005A1A01404D1B0140074001400B4101400A42014006430140044401400645014009460140044701400A480140114901400E4C0140104D0140055001400351014033
:40008000004001600940100289728A0F8D0F89388B0FE204EE02E208EE08E6022E01360139203F104010410249FF4AFF4BFF4DA04F04501854405604580459045A045B0493
:4000C0005C035D135F01604062C06440654066C068C06AC06CC06EC000A40301082009080A410B80108013181740180419141A411B801D8022092304270429502A023108F4
:4001000032103381382A3B80418043084580460449014B08504052045308590464016620676068206990709471407318832487409140932094809610970898059A609B4026
:400140009D019E04A104A280A320A580A701AC01AD08AF12B140B210C007C20FC48ECA0DCC0FCE0FD03AD602D8F0E001E4040108050309020D0C18041E072A022C01300423
:400180003104320233013401350837023E044003460449FF4A074BFF4C404D204EF04F0550085407580459045A045B045C335D325F01604061A862406320851D87028C038B
:4001C0009518970199129A019B059C03A203A403A803AD08B002B30EB401B510B701BB08BE11BF50C063C105C240C402C50EC6FBC7CDC83DC9FFCAFFCBFFCC22CEF0CF0887
:40020000D004D409D604D804D904DA04DB04DC10DD11DF01E2C0E440E501E610E711E8C0E901EB11EC40ED01EE40EF01060209800B080E010F0812041340172518401904BF
:400240001B201D021F1020102101225026542F0234043624389039023B483D0842104418450247024A804D444E09524055485620570659055AA05D045E805F1265406780A3
:4002800078107A04874089408A318C40920198089A029B659C109E10A104A228A703AE10B220B348B408C080C2C3C473CA10CC60CE4FD0E2D230D6FFD8900004019A046085
:4002C0000598070208560A090C040D380FC010071238140115021798180A19211A101BD81C041D981F022004219A25FC26042703280429132B642D02327F330F351337E04C
:4003000038083B885280580459045B045C115D305F018406860888088A348C34910E9201940895059613970A980899039A239B049C34A434A504A709A834AC34B003B10FD6
:40034000B43CB902BA20D602D720D804D904DB04DC11DD10DF0101A00220040205800618081009040A400B010E280F41102A1480172519201A401E20210224022544262C8B
:40038000271028102A082C102E012F0A31023228348037143D803E043F016302682A6A056B25720273017740824089808A01C0F7C2FFC477CAF2CC77CED0D808EE02E0083A
:4003C000E401EA09EC10E204E612010106011C011E022E0432023401350136043F10580459045C045F010048010203040504080409800A400B040E011148128813021402BC
:40040000180419401A501B011D041E011F1020A1210123402708282029902B80308031083210382A3B403D014001410949824A084B8051805A026004614063808340871009
:40044000902891D09202938494029630980699109A409C209E02A0A0A104A288A380A450A508A701B002C02FC28FC48FCA0FCC0ECE8FD00BD20CD601D80DE6100102020897
:40048000030104110606090F0A0C0C0C0D080E131411160E184019011A801B061C801E402020220324C0250F28C02D042F01300F32303308350736C038083A025804590422
:4004C0005C225F0182038409851386D0870488108AAC8CDC8D038E228F14910A93149513970C98149F15A220A40CA671AB08AC10AD20AE40B01FB320B4E0B50FB710BA203F
:40050000BB20BF44C034C102C5EBC60CC807C9FFCAFFCBFFCEF0CF44D00CD401D804D904DA04DB04DC22DD22DF01E6C0EA40EB0200440240034804400505070408200A028A
:400540000B200F0810301110128015041742184219461A021B081C081D211F1221082210242426402704281029402F0A321035023680370439903A023C083D043F80452023
:4005800047064D014F08544057405D015E805F2888408B208C308E0291909442950196209A409B0A9C209E029F04A020A280A404A508C0FFC247C4BECA3ACCD4CE5DD0E0DB
:4005C000D6F0E008E401EA09EC1032203308358037023A20CCF0CE106208670882089D809E209F02A620AF08D8C0E220EE403E1085809D809E209F02A620AF04CE20E210BE
:40060000EE10862096109E209F02A620E64013027D20C408DE0101285704A510AF02C00AD40245088F049920A510A704B508D001E002EA02811083049920A5182510822084
:4006400087028D0896109E209F02C820E220E6401220164071087F0282208640A108A302AA10AF02B510C430DC80DE20E010E480EA901321170863087B107F408F01A30484
:40068000A508B120C40ED802DE03E608EA0412807710831087408E808F109780A710AB20AF08B508C408DE04E202E402EC08000E0C0E0E0A10161C1600FF010303C000005C
:4006C0008280000043000000002000003C0C420000040400673F18007F33000C00004332043000003C0C41331010000008000000180E0031000800000030200E1F015800C5
:400700000020A200000004001003000000D1050217FFFFFF00AF0F04180000000000021204040404222300014000C0004040C000C000C000C000C000000000000000000070
:40074000000000000000000000021040C00C0000C00400008003000C02000D00090006030003102000082000000F400005010A50000C2003030F0C000F0FC0101000206012
:4007800008000202000054404305060001E00C0006FFFFFF62A0F0410C000000180004000404040421220001000000000000400200103010001010120000000000000000E8
:4007C000000000000000000000606000600000008300508083008300000000004000004B4B004000000000001600011612000200000000000000000000000C0025001801DF
:4008000000000000000000000000000000000000000000000000000000000000000000000000000000000000000000000000000000000000000000000000000000000000B8
:400840000000000000000000000000000000000000000000000000000000000000000000000000000000000000000000000000000000000000000000000000000000000078
:400880000000000000000000000000000000000000000000000000000000000000000000000000000000000000000000000000000000000000000000000000000000000038
:4008C00000000000000000000000000000000000000000000000000000000000000000000000000000000000000000000000000000000000000000000000000000000000F8
:0200000490006A
:0400000000004005B7
:0200000490105A
:04000000BC90ACAF55
:0200000490303A
:02000000AF74DB
:0200000490402A
:4000000000000000000000000000000000000000000000000000000000000000000000000000000000000000000000000000000000000000000000000000000000000000C0
:400040000000000000000000000000000000000000000000000000000000000000000000000000000000000000000000000000000000000000000000000000000000000080
:400080000000000000000000000000000000000000000000000000000000000000000000000000000000000000000000000000000000000000000000000000000000000040
:4000C0000000000000000000000000000000000000000000000000000000000000000000000000000000000000000000000000000000000000000000000000000000000000
:0200000490501A
:0C00000000012E16106900012E1EBFDD4D
:00000001FF