:400000000080002011000000091300000913000008B5044B1A6803F53F5302331A6001F093F900BFFA46004010B5054C237833B9044B13B10448AFF300800123237010BDB2
:400040004881FF1F0000000060350000084B10B51BB108490848AFF300800848036803B910BD074B002BFBD0BDE81040184700BF000000004C81FF1F60350000C880FF1FD8
:40008000000000002DE9F04190B000249C4B1C709C4B1C709C4B1C709C4B1C709C4B1C709C4B1C709C4B1C709C4B1C709C4B1C709C4B1C709C4B1C709C4B1C709C4B1C70BE
:4000C0009C4B1C709C4B1C709C4B1C7001F0C6F902F0C6FB00F078FE0A2002F0FFF801F045FD02F0BBFD01F021FF02F0F5FC62B6934801F023FA934802F0C0F9924802F0A7
:40010000E5F9924802F03EFD914802F013FD204600F01EFE0446012000F01AFE44EA002084B28C4801F0CAF902222221182000F083FE10B9884801F0C1F940222E211820D1
:4001400000F07AFE10B9854801F0B8F940222421182000F071FE10B9814801F0AFF97F2C05D88021002000F00BFE00F025FE00F04DFC6B4B1B78DBB2012B16D16A4B1A78B8
:400180002321182000F058FE60B9674B1A78754903A802F0C1FD03A801F090F90022604B1A7002E0704801F089F95E4B1B78DBB2012B24D15D4B1A782021182000F03CFEB7
:4001C000044660B9594B1A78684903A802F0A4FD03A801F073F90022524B1A7002E0644801F06CF92CB900222E21182000F024FE044624B940222E21182000F01DFE4C4BF0
:400200001B7813F0FF0F6BD05A4B1B7813F0FF0F66D03B4B1B7813F0FF0F55D160E065002B195A00111D544B585C501D1E5C1E5C02F1020C13F80C6002F1030E13F80E60F6
:4002400013F80E609E5C571CDE5DDE5D4B4E16F81480013516F805804FF0A0088DF8048013F80180195C890041EA98118DF80510195C13F80C0013F80EC0000940EA9111FC
:4002800041EA0C118DF8061013F80EE0995CD85D890841EA1E1242EA80128DF80720DB5D9B088DF8083016F814308DF80930735D8DF80A30C0238DF80B30082101A801F045
:4002C0000FF90134E4B200E000241F2CA7D902F0BDFB00232A4A1370264A1370084A1370154B1B78DBB2012B04D100F04BFC0022114B1A70114B187800F0DCFC39E700BF7D
:40030000D783FF1FD883FF1FDC83FF1F9083FF1FDD83FF1F4883FF1F9183FF1FC681FF1F2084FF1FDA83FF1FD683FF1F8E83FF1FD983FF1FDB83FF1F8F83FF1F8D83FF1FE9
:40034000BD0400006509000079090000A1030000F5030000643500007C350000A0350000C8350000EC3500002C3600006C360000AC3600008C83FF1FC881FF1F9483FF1F44
:40038000D483FF1F10B5044602F046FB02F05EFB204602F061FB02F059FB02F09DFB10BD10B5114BC0222821182000F013FD30B110BD0D4AD15C0D4AD154013301E0044659
:4003C0000023BF2BF5DD2CB900222E21182000F033FD044624B940222E21182000F02CFD0122034B1A7010BD8882FF1FC881FF1F8C83FF1F38B502F029FB234B1B78DBB232
:400400001F2B29D8204C2578EDB201F001FE80B21E4A22F815002378DBB232F813302378DBB232F813302378DBB22178C9B232F81110C9B2164800F8131023785B00013341
:400440002178C9B232F81120C2F30722C25423780133DBB2237038BD0B4B1B78DBB2202B10D106E00A4AD25CD2B20A49CA54013300E000233F2BF5DD0022034B1A700122A6
:40048000054B1A7038BD00BFD483FF1F8481FF1FE083FF1F9483FF1FD783FF1F08B5C72001F014FB642001F017FB08BD08B5C72001F00CFB002001F00FFB08BD38B500F09F
:4004C000DBFF7E4B18703038462800F20782DFE810F0E50015016801A201D20105020502050205020502050205020502050205024700050205024D00050205020502B3002F
:4005000005020502050205020502BB00050205020202B7000502050280000502E100BF00050205020502050205020502050205020502050205024D00050205020502B3007D
:4005400005020502050205020502BB00050205020202B7000502050280000502E100BF000022574B1A7000F051FAB7E1554800F0A5FF0123544A1370544A137002F066FA95
:4005800002F0AAFA02222221182000F055FC504B187010B94F4800F091FF40222E21182000F04AFC4A4B187010B94B4800F086FF40222421182000F03FFC454B187010B9CA
:4005C000464800F07BFF3F4800F078FFFFF766FF84E13C4800F072FF00243B4B1C703B4B1C7002F019FA02F031FA22462221182000F022FC364B187010B9394800F05EFF75
:4006000000222E21182000F017FC314B187010B9344800F053FF00222421182000F00CFC2B4B187010B9304800F048FF254800F045FFFFF73BFF51E101222C4B1A704DE121
:4006400001222B4B1A7049E101222A4B1A7045E100241D4B1C701D4B1C7022462221182000F0EAFB1A4D287022462E21182000F0E3FB287022462421182000F0DDFB287088
:4006800002F0CAF902F0E2F9FFF710FF01220C4B1A7023E100220A4B1A701FE1154B1B78DBB2012B40F01A810022124B1A700120114B187001F0D2FC10E100BF2184FF1FF3
:4006C000DB83FF1F743D0000D983FF1FDD83FF1F2284FF1F7C350000A0350000C8350000EC360000143700003C370000D883FF1FDC83FF1F9083FF1FC681FF1F8E4B1B78B6
:40070000DBB2012B14D18D4B1B7813F0FF0F0FD18B4B1B7813F0FF0F0AD10022864B1A700123884A13708021874A1170874A1370814B1B7813F0FF0F18D1804B1B78DBB2E9
:40074000012B13D17E4B1B7813F0FF0F0ED100227A4B1A7001237E4A137017217D4A11707D4A13704FF47A70FFF70CFE724B1B7813F0FF0F40F0B280704B1B7813F0FF0F24
:4007800040F0AC806E4B1B78DBB2012B40F0A68000206B4B18700222704B1A7001F05EFC9CE0654B1B78DBB2012B15D1634B1B7813F0FF0F10D1624B1B7813F0FF0F0BD1B2
:4007C00000225D4B1A7002225E4B1A7090225E4B1A7001225D4B1A70574B1B7813F0FF0F7CD1564B1B78DBB2012B77D1544B1B7813F0FF0F72D10022504B1A700222544BBC
:400800001A702722534B1A700122534B1A706420FFF7B8FD62E0484B1B78DBB2012B10D1464B1B7813F0FF0F0BD10022424B1A700322444B1A70A022434B1A700122434B2E
:400840001A703D4B1B7813F0FF0F47D13B4B1B78DBB2012B42D10022384B1A7003223C4B1A7037223B4B1A7001223B4B1A702820FFF788FD32E0304B1B78DBB2012B10D147
:400880002E4B1B7813F0FF0F0BD100222A4B1A7004222C4B1A70B0222B4B1A7001222B4B1A70254B1B7813F0FF0F17D1234B1B78DBB2012B12D10022204B1A700422244BBD
:4008C0001A704722234B1A700122234B1A701420FFF758FD02E00122214B1A70164B1B78DBB2012B09D1154B1B78DBB2012B04D10023114A1370114A1370114B1B78DBB215
:40090000012B09D10D4B1B78DBB2012B04D100230B4A1370094A1370094B1B78DBB2012B09D1054B1B78DBB2012B04D10023044A1370014A137038BDD883FF1FDC83FF1FCF
:400940009083FF1F4883FF1FD683FF1F2084FF1F9183FF1F8E83FF1FDA83FF1FC681FF1F8F83FF1F08B50122024B1A7001F05EFD08BD00BF6481FF1F1F4B1B78012B39D1F6
:4009800010B501F025FD1C4C6080002001F01AFD0023237063884EF27762934210D80121164A1170C3F56A43603303EB83039BB2134A1380128892B21249134802F0ACF9A1
:4009C0000D4B5B884EF27862934210D902210B4A1170C3F56A43603303EB83039BB2084A1380128892B20749074802F095F901F0C9FC10BD704700BF6481FF1F8D83FF1F26
:400A0000C481FF1F643700004C83FF1F2DE9F041434E304600F052FD424F384600F04EFD414800F04BFD384600F048FD3F4C204600F044FD3E4800F041FD3E4800F03EFDF9
:400A4000204600F03BFD3C4800F038FD3B4D284600F034FDDFF82881404600F02FFD284600F02CFD364800F029FD284600F026FD204600F023FD334800F020FD284600F00E
:400A80001DFD404600F01AFD284600F017FD2E4800F014FD284600F011FD204600F00EFD2A4800F00BFD2A4800F008FD294800F005FD294D284600F001FD284800F0FEFC79
:400AC000284600F0FBFC264800F0F8FC284600F0F5FC204600F0F2FC224800F0EFFC224800F0ECFC204600F0E9FC384600F0E6FC304600F0E3FC1D4800F0E0FC1C4800F0E0
:400B0000DDFC1C4800F0DAFC1B4800F0D7FC304600F0D4FC194800F0D1FCBDE8F08100BF743D000080370000C83700001038000058380000A0380000E838000030390000C3
:400B4000C0390000083A0000503A0000983A0000E03A0000283B0000703B0000B83B0000003C0000483C0000903C0000D83C0000283D0000783D0000C83D00001C3E0000AA
:400B80007839000008B5354800F098FC344800F095FC344B1B7823B103F0FF02012A04D006E0314800F08AFC02E0304800F086FC2F4B1B78DBB2042B17D8DFE803F00307D3
:400BC0000B0F13002B4800F079FC0EE02A4800F075FC0AE0294800F071FC06E0284800F06DFC02E0274800F069FC274B1B78DBB2042B17D8DFE803F003070B0F1300234816
:400C000000F05CFC0EE0224800F058FC0AE0214800F054FC06E0204800F050FC02E01F4800F04CFC1E4B1B78DBB2012B07D013B1022B08D00AE01B4800F040FC06E01A481C
:400C400000F03CFC02E0194800F038FC034800F035FC174800F032FC08BD00BF383E00003C3E0000DD83FF1F6C3E0000A83E00004883FF1FE03E0000203F0000443F000091
:400C8000683F00008C3F00009183FF1FB03F0000F03F0000104000003440000058400000C681FF1F7C400000BC400000DC4000001C3E000010B5012802D0022817D010BDE5
:400CC000164C204600F0FAFB154800F0F7FB154800F0F4FB144800F0F1FB204600F0EEFB124800F0EBFB0022114B1A7010BD0B4C204600F0E3FB0A4800F0E0FB094800F067
:400D0000DDFB0C4800F0DAFB204600F0D7FB074800F0D4FB0022064B1A7010BD383E0000084100004C83FF1F34410000604100008D83FF1F8041000008B5052000F0AAF89D
:400D400008BD00BF08B5062000F08EF808BD00BF00B583B003218DF80410030A8DF805308DF8060002AA002302F8053D012301A800F0AAF89DF8030003B05DF804FB00BF53
:400D800030B583B004460D46FFF7DCFF02238DF80430230A8DF805308DF806408DF80750002302AA02F8053D04210DEB010000F08BF803B030BD00BF08B5FFF7BDFF10F0D7
:400DC000010FFAD108BD00BF08B500F00BFC002008BD00BF2DE9F04180460C4616461F46002100F07BFD0546F0B944F0800000F007FE0546C0B90121404600F0AFFD0546A3
:400E000050B111E0C4EB0608012000F025FE07F80800013CE4B200E03446012CF2D8013E002000F019FEB85500F0CEFD281C18BF0120BDE8F08100BF70B50D461646002170
:400E400000F04CFD044640B9284600F0D9FD044618B9304600F0D4FD044600F0B5FD201C18BF012070BD00BF10B50446002001F0B3FD204601F096FB01F06CFB10F0080F3D
:400E8000FAD001F0F9FB0446012001F0A5FD204610BD00BF10B50446002001F09DFD204601F080FB002001F07DFB01F053FB10F0010FFAD001F0E0FB01F0DEFB0446012064
:400EC00001F08AFD204610BD2DE9F04383B006460C4617469846002001F07EFD64B2002511E02146082CA8BF0821C9B206EBC50001F03EFC01F02EFB10F0010FFAD0083C7B
:400F000064B201356DB2002CEBDC01F041FC01F0E5FB0026009601964FFA88F820E0C146B8F1080FA8BF4FF008095FFA89F1684601F01EFC01F00EFB10F0010FFAD0002436
:400F400006E004EBC60501F097FB78550134E4B24C45F6DBA8F108084FFA88F8013676B2B8F1000FDBDC012001F036FD01F010FC01F0B4FB01F0D2FB03B0BDE8F08300BFEA
:400F8000FEE700BFF0B40022174611E050F82760F3B226F0FF0608E001EB420511F812406D78A5550132013BDBB2002BF4D10137242FEBD9F0BC7047084B1B78DBB203F091
:400FC0000701074A11701B0901321370C022054B1A704422A3F2E2231A707047CF0100496E580040585B004008B50A46002101F08AFE08BD08B501F07BFE08BD70B500248D
:401000003B4B1C80502202331A70032602331E801823384A13701925023215800232137045F6BF51023211800232137043F697230232138002321570023213802E4B1D705C
:401040004EF65F2202331A8002331D7004222B492B48FFF7CFFF02222A4B1A7008224FF040231A7003F500731E70274B1B78DBB226490B70264B1A8041F25122023B1A80D3
:401080000CE0244B1B7803F0010343EA440404F003044FF4F07001F0EFFD013D0DB1032CEFD115B90320FFF76BFF1B4B4FF480721A8007221A70002218490A70482002319F
:4010C00008701A700222033B1A7004220A331A70134A137843F07F031370013A137843F001031370013A137843F08003137070BD8040004086400040964000407809004864
:40110000004100400043004008010049A146004022420040254200400440004006400040A2430040012814D810B44000C0B2094B53F820101A18147C0A7822430A7001300A
:40114000C0B253F820201844017C13780B43137010BC7047AC410000012816D810B44000C0B20A4B53F820101A18147C0A7822EA04020A700130C0B253F820201844017C99
:40118000137823EA0103137010BC7047AC410000012808D8044B03EB800252691844017F13780B4313707047AC410000012809D8054B03EB800252691844017F137823EA48
:4011C00001031370704700BFAC41000038B572B6394A137843F00403137000240BE0374863001A19510001440A46898C106AFFF7FBFE0134E4B20A2CF1D900240CE02F484B
:40120000A20011194B000344B3F86C20996E586EFFF7F0FE0134E4B2022CF0D928494FF09040FFF7AFFE0A24264B1C70264A137843F0020313701032137843F0020313701A
:40124000224D2B7843F040032B70A2F58632513A137843F01003137008221D491D48FFF7C9FE22461C491D48FFF7C4FE08221C491C48FFF7BFFE22461B491C48FFF7BAFEFD
:4012800022461B491B48FFF7B5FE1B4A137843F008031370194C61232370FFF7AFFE812323700122164B1A70FFF786FE0E2229461448FFF79FFE38BDE8460040AC410000E9
:4012C000940000488358004003500140A043004044090048025100404C090048C0510040580900481251004060090048205100406C090048305100402243004000480040D1
:4013000004000840B043004008B501F0C5FC03680C2B00D1FEE7FEE708B5094B1A681044084BC31A802B02DC054B186005E001F0B3FC0C2303604FF0FF32104608BD00BFB9
:40134000CC80FF1F5884FF1F08B5104E104D16E029686B68AC68002204E051F8040B43F8040B0432A242F8D1E868002203E0002143F8041B04328242F9D11035013E002E52
:40138000E6D101F08FFCFEF77DFEFEE7010000008842000008B5104A104B1A60104A136843F40073136000230AE0032B03D80D4A52F8231000E00C490C4A42F823100133E6
:4013C0002F2BF2D90A4B1A780A4B1A70074A0A4B1A60FFF7FBFE08BD0004FA050CED00E014ED00E000000000091300000080FF1FBC760040C080FF1F08ED00E07222084B2B
:401400001A70202201331A700622A3F261131A70472210331A70002251331A70704700BF8865004010B501F02FFC04460A4A137843F0200313700132137843F010031370F4
:40144000A2F58072137843F01003137000F012FE204601F01DFC10BD9865004008B5054B1B7823B9FFF7CAFF0122024B1A70FFF7D9FF08BD6881FF1F084B1B78DBB213F0D0
:40148000200F06D0064A1078C0B213F01E0F02D17047002070470020704700BF6965004049650040034B1B7813F0040FFAD1024B18707047696400404964004038B5074B33
:4014C0001B782BB938BDFFF7EDFF0134A4B201E005460024285D0028F5D138BD6881FF1F084B1B7833B97047305DFFF7DBFF0134E4B203E070B50D4606460024AC42F3D324
:4015000070BD00BF6881FF1F014B1B685865704708ED00E04001C0B2014B1870704700BF05E400E02022014B1A60704700E100E02022014B1A60704780E100E010B504464B
:40154000FFF7F6FF2046FFF7DFFF0720FFF7E2FFFFF7E8FF10BD00BF38B50222114B1A7081220E3B1A70082202331A700F2511331D70002401331C704FF400420A4B1A604C
:401580000721284600F0DEFE0849284600F0C6FE1022074B1A70074B1C70074B1C70074B1C7038BDD649004080E100E00D1600002384FF1F3184FF1F2484FF1F2584FF1FD1
:4015C00008B501F061FB064A137843F0040313701032137843F00403137001F059FB08BDA543004008B5074B1B7823B9FFF7B4FF0122044B1A70FFF7E3FF4FF40042024BC0
:401600001A6008BD6A81FF1F00E100E038B5A54B1C78A54B1B7813F0400F00F03A81E4B214F0010F00F01D819F4B1B78453B052B00F21481DFE813F006008200120112014C
:401640000600DF0004F0DF0504F00A04082C42D1954B1B78DBB2452B35D1944B1B7813F0FF0F10D0924B1B681B78DBB2914A137004228C4B1A7001228F4B1A7046228A4B62
:401680001A702C46EDE08D4B1B7813F0020F0DD08B4A137843F00A0313706022824B1A704FF40042874B1A602C46DAE0864A137843F0100313701022844B1A700422023BFA
:4016C0001A702C46CDE00022764B1A704A22764B1A702C46C5E00A2C2BD1794A137843F0A0031370754B1B7813F0020F14D06E4B1B7813F0080F01D0092300E00A23704AB8
:4017000011780B4313706022674B1A704FF400426C4B1A602C46A4E06B4A137843F0100313701022694B1A700422023B1A702C4697E0002000F0D0FD2C4692E014F0020FC0
:4017400036D15D4B1A78D2B2584B1B78DBB29A4210D2594A1378DBB255490968CB5CDBB254490B7004214F4B197013780133DBB2137076E0514B1B7813F0020F0CD0504A67
:40178000137843F00A0313706022474B1A704FF400424C4B1A6064E04B4A137843F0100313701022494B1A700422023B1A7058E0424B1B7813F0020F0CD0414A137843F0AC
:4017C0009A0313706022384B1A704FF400423D4B1A6046E03C4A137843F01003137010223A4B1A700422023B1A70354A137843F09003137035E0364A1378DBB23549086897
:401800002C490978C9B2C15413780133DBB213701278D2B2304B1B78DBB29A4203D21022204B1A701DE0254B1B7813F0020F0CD0234A137843F00903137060221A4B1A70B7
:401840004FF400421F4B1A600BE01F4A137843F0100313700022134B1A7002E0002000F03BFD14F0200F1CD00F4B1B7813F0080F01D0012300E00223114A11780B4313704E
:40188000114A137803F0EF0313701022064B1A7038BD054B1B7813F0100F02D11022024B1A7038BDD74900402384FF1F2684FF1F2884FF1FD84900402584FF1F3084FF1F51
:4018C0003184FF1F80E100E0D6490040D94900402484FF1F2C84FF1F3284FF1F1A4B1B78DBB2102B29D1194B1B7813F0080F26D14FF40042164B1A604000C0B229B140F0CD
:4019000001004922104B1A7002E045220E4B1A70104B1870012201331A700F4B1B7813F0010FFAD00C4B1B7803F00A030A2B08D11022054B1A7003207047022070470120C4
:4019400070470020704700BF2384FF1FD949004080E100E0D8490040D7490040164B1B7813F0040F23D04000C0B229B140F001004922124B1A7002E04522104B1A70104B5C
:401980001870122201331A700422023B1A700D4B1B7813F0010FFAD00A4B1B7803F00A030A2B06D11022054B1A7003207047022070470020704700BFD94900402384FF1F88
:4019C000D8490040D74900400A4B1B7813F0040F0ED01023074A13700421023A1170064A1370064B1B7813F0210FFAD00020704702207047D94900402384FF1FD749004076
:401A0000114B1B7813F0040F1BD0104B18700422013B1A7046220E4B1A700E4B1B7813F0010FFAD00B4B1B7813F0020F04D16022074B1A70002070476022054B1A7003204D
:401A400070470220704700BFD9490040D84900402384FF1FD7490040114B1B7813F0040F1BD0104B1B78DBB2492B05D100220E4B1A704A220B4B1A700B4B1B7813F0010F2D
:401A8000FAD00A4B1B78DBB218B11021064A117004E06021034A117000E0002318467047D94900402384FF1FD7490040D8490040024A137843F08003137070477D64004001
:401AC000014B1870704700BF0D640040014B1870704700BF4D640040014B1870704700BF2D640040014B1870704700BF8D640040014B1878704700BF6D640040014B1878DB
:401B0000704700BF5D64004008B501E0FFF7F6FFFFF7EEFF10F0100FF8D108BD10B5114A137803F0C00343F0240313700E4C237843F001032370C720FFF7C2FFC720FFF79D
:401B4000C5FF0020FFF7C8FF0020FFF7CBFF01F09BF8237843F01003237001F099F8FFF7D3FF10BD7D6400409D64004008B5054B1B7823B9FFF7D2FF0122024B1A70FFF740
:401B800097FF08BD6B81FF1F10B59DF80840012C51D1013809282ED8DFE800F0052D2D052D2D0F192D230F2B03D92548007840B222E02448007840B21EE00F2B03D922482F
:401BC000007840B218E02148007840B214E00F2B03D91F48007840B20EE01E48007840B20AE00F2B03D91C48007840B204E01B48007840B200E0002001EB401101FB02F16C
:401C0000C90B8AB20D2B0BD8C3F10E0289B211418AB2611E124800EB810101338B7005E0631E0F4901EB83030F219970013C0C4B23F8242010BD002000F04EFB10BD00BF69
:401C4000180100491C010049190100491D0100491A0100491E0100491B0100491F0100496C81FF1FF8B5074601F00EF806460D4D2B7843F003032B700B4C237843F00303F4
:401C800023700A4B1F70032000F03EFB2B7803F0FC032B70237803F0FC032370304600F0F7FFF8BDF8460040F9460040925800400022324B1A7101285FD170B53822304B5C
:401CC0001A70042202331A70062201331A70002401331C7001331C703F2201331A7002331C7001331C7001331C7001250A331D70502203F527631A700A2201331A702C22E5
:401D000001331A7001331C70442203331A70482201331A7001331D7002331D70112201331A70192201331A70972201331A705220FFF798FF5822134B1A7001331C700526A7
:401D400005331E70022201331A7001331C7001331C70204600F0ACF943F233320A4B1A602946304600F0C8F92946252000F048FA06491D2000F0D2FA70BD70476C81FF1F24
:401D8000004E0040945800403484FF1F39200000F0B583B0284D01272F70284E00247471102000F097F9102000F018FA07211D2000F0C8FA0422224B1A7001331C70073397
:401DC0001C70204A137843F0180313701E4B1C7003F2F5231C7001331C700A22A3F209331A7001331C7002331C705B2205331A705E2201331A7004331C701422A3F68C237D
:401E00001A70009710234FF4004248F6F0510220FFF7BAFE2B78013B06EB83039A780B4B1A702B78013B36F82320094B1A802878FFF73EFF03B0F0BDD080FF1F6C81FF1F48
:401E400096580040075B0040935800400E4E00400C4E004070B500F017FF06462A4B1B782A4B1A7842F001021A701A7842F010021A7010331A7842F001021A701A7842F034
:401E800010021A70224D2B7843F002032B70214C237843F0020323701F4A137843F003031370032000F030FA2B7803F0FD032B70237803F0FD032370184A137843F0060366
:401EC00013707A22164B1A70164A137843F0010313701032137843F0010313700F3A137843F0010313701032137843F0010313704FF000530C4A1360A2F5C072136030468A
:401F000000F0C6FE70BD00BFD080FF1FAA430040F8460040F9460040915800407758004082580040A143004080E200E008B5084B9B794BB9064BDB7913F0FF0F01D1FFF70B
:401F400027FF0122024B9A71FFF784FF08BD00BF6C81FF1F024A137843F0010313707047004E0040024A137803F0FE0313707047004E0040094B1B7913F0FF0F03D0074B31
:401F80005B79DBB203E0064B1B7803F00103012B01D00028EED01846704700BF6C81FF1F014E0040154B1B7803F00303012B07D8134B1888023B1B889BB243EA004013E02F
:401FC000022B0AD10E4B1888023B1B7843EA00430C4A107843EA002006E00B4B188883B2074A108843EA0040084B1B7913F0FF0F02D00022054B5A71704700BF144E0040EF
:40200000124E0040114E0040104E00406C81FF1F10B5084A137843F004031370FFF79AFF0020FFF7A7FFFFF7BDFF0446FFF79AFF204610BD014E0040704700BF10B5002462
:4020400004E02046FFF788F80134E4B2012CF8D9FF22014B1A7010BDD180FF1F10B50446FFF7ECFF2046FFF75DF8014B1C7010BDD180FF1F054A137843F004031370103216
:40208000137843F004031370704700BFA243004010B5002404E02046FFF788F80134E4B2012CF8D9FF22014B1A7010BDD280FF1F10B50446FFF7ECFF2046FFF769F8014B9E
:4020C0001C7010BDD280FF1F014B188880B2704780400040034B1A7800F0F80010431870704700BF82400040024B187800F00700704700BF8240004070B505460E46FFF721
:40210000F3FF0446FFF7E0FFA84256D02B4B1B7803F0010294B900B185B938B9284B1D80284A137803F0BF03137070BD254A137843F040031370224B1D8070BD22B30023BE
:4021400021490B7001240F310C7004310B700C390B7803F07F030B701A4B1B7813F0080F00D08DB9194B18800721013B1970164B1B7813F0010FFAD110490B7803F0FE037E
:402180000B700021104B19700C4B1B7813F0010F0DD00E4B1D800EB1032200E001220A4B1A70094B1B7813F0010FFAD170BD044B1D8002490B7813430B7070BDA24300403A
:4021C00080400040824000400140004002400040014B188880B2704700410040034B1A7800F0F80010431870704700BF02410040024B187800F00700704700BF024100401B
:4022000070B505460E46FFF7F3FF0446FFF7E0FFA84256D02B4B1B7803F0010294B900B185B938B9284B1D80284A137803F0BF03137070BD254A137843F040031370224BC5
:402240001D8070BD22B3002321490B70012413310C7004390B7008390B7803F07F030B701A4B1B7813F0080F00D08DB9194B18800721013B1970164B1B7813F0010FFAD183
:4022800010490B7803F0FE030B700021104B19700C4B1B7813F0010F0DD00E4B1D800EB1032200E001220A4B1A70094B1B7813F0010FFAD170BD044B1D8002490B78134336
:4022C0000B7070BDA14300400041004002410040014000400240004001BE704710B5044605E0084B186800F0C7FCA4F50044B4F5004FF6D8034B586800FB04F000F0BCFCD3
:4023000010BD00BFD480FF1F08B5034B1B7A00FB03F000F0B1FC08BDD480FF1F70B504460E46074B1D681F2802D90020FFF7D4FF04F01F04103455F8240045F8246070BDDE
:4023400008ED00E038B504460D46072902D90020FFF7C2FF1F2C02D90020FFF7BDFF04F01F0000F1604000F564406D01EDB2057038BD00BF024A137843F0800313707047EA
:4023800074640040024A137803F07F031370704774640040014B1870704700BF85640040014B1878704700BF65640040014B1880704700BF48680040014B188880B270477A
:4023C00088680040014B1880704700BF08680040024B1B78024B188880B27047046400408868004008B501E0FFF7E6FFFFF7D8FF10F0080FF8D108BD08B54EF65F20FFF7B4
:40240000D5FF4EF65F20FFF7DDFF00F03DFC064A137843F01003137000F03AFCFFF7E2FF0020FFF7B7FF08BD9564004008B5054B1B7823B9FFF7E0FF0122024B1A70FFF75E
:4024400099FF08BD7881FF1F014B1B685864704708ED00E04001C0B2014B1870704700BF01E400E00222014B1A60704700E100E00222014B1A60704780E100E010B50446BC
:40248000FFF7F6FF2046FFF7DFFF0720FFF7E2FFFFF7E8FF10BD00BF014B1B681864704708ED00E04001C0B2014B1870704700BF00E400E00122014B1A60704700E100E097
:4024C0000122014B1A60704780E100E010B50446FFF7F6FF2046FFF7DFFF0720FFF7E2FFFFF7E8FF10BD00BF0822014B1A60704700E100E00422014B1A60704700E100E094
:4025000008B500F0C1FB0C4A137843F0200313700132137843F01003137002F20312137843F01003137000F0B3FB00F047FAFFF7DBFFFFF7DFFF08BD926400400822014BB0
:402540001A60704780E100E00422014B1A60704780E100E010B5FFF7F1FF064B1C78064A137803F009031C4300231370FFF7BCFF204610BD636400403884FF1F10B5FFF716
:40258000E3FF064B1B78064A147804F040041C4300231370FFF7AEFF204610BD666500404984FF1F10B504462B4B1A7802F0FF0312B1013BDBB200E00723284A1278D2B24F
:4025C0009342F1D0FFF7BAFF254B1978254A137803F009030B4313701F4B1A78D2B21F4B1B78DBB29A4207D11E4B1B7813F0040F02D01D4B1C702CE0184A13780133DBB27B
:4026000013701378DBB2072B02D90022134B1A70124B1A78D2B2104B1B78DBB29A420ED10D4A13780133DBB213701378DBB2072B02D90022084B1A7001220C4B1A70074B9F
:402640001B78DBB20A4AD4540A4A137843F004031370FFF749FF10BD4A84FF1F4884FF1F636400403884FF1F426400404484FF1F3C84FF1F8364004010B5FFF765FF134B12
:402680001A78D2B2124B1B78DBB29A4214D0114B1B7813F0FF0F0CD10C4A13780133DBB213701378DBB2072B06D90022074B1A7002E00022074B1A70044B1B78DBB2064AFF
:4026C000D45CE4B2FFF716FF204610BD4784FF1F4584FF1F4684FF1F4C84FF1F08B501E0094B1B78094B1B7813F0200FF8D1FFF72BFF0023064A1370064A1370064A13700D
:40270000FFF7F8FE08BD00BF52640040666500404684FF1F4784FF1F4584FF1F08B500F0B3FA0E4B1A7842F001021A701A7802F0FE021A7000F0ACFAFFF700FF0023084A5E
:402740001370084A1370084A1370084A137803F0FB031370FFF7C8FE08BD00BF926400404484FF1F4A84FF1F4884FF1F8364004070B506460C46002506E0705DFFF712FFE0
:402780000135EDB2013CE4B2002CF6D170BD00BF08B501E00A4B1B780A4B1B7813F0200FF8D100F071FA084B1A7842F001021A701A7802F0FE021A7000F06AFA08BD00BF44
:4027C00052640040666500409264004010B50F22184B1A70184C0823236007210320FFF7B1FD16490320FFF799FD0423236007210220FFF7A7FD12490220FFF78FFDFFF72D
:40280000C7FF00240F4B1C700F4B1C700F4B1C700F4B1C700F4B1C700F4B1C70FFF79AFEFFF7ACFE0D4B1C70202203F203131A7010BD00BF8264004080E100E07D280000C9
:402840001D2900004684FF1F4784FF1F4584FF1F4484FF1F4A84FF1F4884FF1F8364004008B5054B1B7823B9FFF7B0FF0122024B1A70FFF745FE08BD7981FF1F28E01F4BD4
:4028800019781F4A137803F009030B431370137813F0040F24D01B4B1B7813F0FF0F0CD1194A13780133DBB213701378DBB2072B06D90022144B1A7002E00022114B1A70F7
:4028C000114B1B78DBB2114AD35CDBB2104A13700D4B1A78D2B20F4B1B78DBB29A42CED1094B1A78D2B20B4B1B78DBB29A4204D1094A137803F0FB03137070476364004064
:402900003884FF1F4484FF1F4A84FF1F3C84FF1F426400404884FF1F83640040204B1A7820490B7803F0400313430B7032E01E4B1A78D2B21D490B780133DBB20B700B78ED
:40294000DBB2072B02D90021184B1970174B1978C9B2174B1B78DBB299420ED114490B780133DBB20B700B78DBB2072B02D900210F4B197001210F4B19700C4B1B78DBB24D
:402980000D49CA54064B1A7806490B7803F0400313430B70034B1B7813F0200FC7D17047666500404984FF1F526400404584FF1F4784FF1F4684FF1F4C84FF1F054A137819
:4029C00043F0020313701032137843F002031370704700BFA2430040044A137803F0EF03000100F0100018431070704720510040084A137843F0010313701032137843F060
:402A00000103137002F64D32137843F001031370704700BFA3430040084A137803F0FE031370A2F65D32137803F0FE0313701032137803F0FE031370704700BF004F0040F1
:402A4000014B1870704700BF034F0040014B1878704700BF034F0040014B1880704700BF044F0040014B1880704700BF064F004008B5164A137803F00103137002321378D9
:402A800003F0FC031370124B1A7802F0CF021A701A7842F030021A701A7802F0F0021A701A7842F00F021A700A4A137843F00103137040F2E730FFF7CFFF40F2E730FFF7A1
:402AC000D1FF0820FFF7BCFF08BD00BF004F00400B4F0040014F004008B5054B1B7823B9FFF7C6FF0122024B1A70FFF781FF08BD7A81FF1F024B1B68C3F88400704700BFE6
:402B000008ED00E04001C0B2014B1870704700BF11E400E04FF40032014B1A60704700BF00E100E04FF40032014B1A60704700BF80E100E010B50446FFF7F4FF2046FFF736
:402B4000D9FF0720FFF7DEFFFFF7E4FF10BD00BF014B1B681865704708ED00E04001C0B2014B1870704700BF04E400E01022014B1A60704700E100E01022014B1A60704762
:402B800080E100E010B50446FFF7F6FF2046FFF7DFFF0720FFF7E2FFFFF7E8FF10BD00BF024A137843F080031370704777650040014B1870704700BF07650040014B18708C
:402BC000704700BF47650040014B1870704700BF27650040014B1870704700BF87650040014B1878704700BF67650040014B1878704700BF5765004008B501E0FFF7F6FFB2
:402C0000FFF7EEFF10F0100FF8D108BD10B5114A137803F0C00343F0240313700E4C237843F001032370C720FFF7C2FFC720FFF7C5FF0020FFF7C8FF0020FFF7CBFF00F01B
:402C400023F8237843F01003237000F021F8FFF7D3FF10BD776500409765004008B5054B1B7823B9FFF7D2FF0122024B1A70FFF797FF08BD7B81FF1F0230800803D000BFDB
:402C800001380046FCD17047EFF3108072B6704780F31088704700BF014B1868704700BF4481FF1F0E4B70B51E460E4C0025E41AA410A54204D056F8253098470135F8E7B5
:402CC00001F0D0FA084B094C1E46E41AA4100025A54204D056F8253098470135F8E770BD7042000070420000704200007842000010B5431E0A44914204D011F8014B03F87C
:402D0000014FF8E710BD03460244934202D003F8011BFAE7704700000EB400B54FF402719CB0ADF814106FF00041049107914FF6FF711DAB02900690084853F8042BADF88F
:402D40001610006802A9019300F064F8029B00221A701CB05DF804EB03B070474481FF1F2DE9F0478E6882469E420C46914698463ED88A8912F4906F3AD025680969022346
:402D80006F1A656905EB450595FBF3F57B1C43449D4238BF1D4653050FD5294600F040FB064698B13A462169FFF7A2FFA38923F4906343F08003A38113E02A4600F08EFBBB
:402DC000064670B92169504600F0DEFA0C23CAF80030A3894FF0FF3043F04003A381BDE8F08726613E44266046466561ED1BA560464528BF464649463246206800F0A8FAF8
:402E0000A36800209B1BA36023681E442660BDE8F08700002DE9F04F9DB003938B8980461C060D4616460DD50B695BB9402100F0F7FA2860286118B90C23C8F80030CDE0E2
:402E400040236B610023099320238DF82930DFF89CB130238DF82A3037463C4614F8013B1BB9B7EB060910D003E0252BF9D02746F3E74B46324629464046FFF771FF013069
:402E800000F0A780099B4B4409933B78002B00F0A08000234FF0FF3204930793059206938DF853301A930126052221784E4800F041FA671C049B38B14B4A3C46801A06FA31
:402EC00000F018430490EFE7D90644BF20228DF853201A0744BF2B228DF8532022782A2A03D0079A00210A200BE0039A111D12680391002A10DA524243F00200079204901D
:402F00000BE027463B780134303B092B03D800FB02320121F5E701B107923B782E2B1ED17B782A2B0AD1039B02371A1D1B680392002BB8BF4FF0FF33059310E000231946FE
:402F40000593781C0A2407463A780130303A092A03D804FB01210123F5E703B1059103223978224800F0E6F940B14023CBEB000003FA00F0049B013718430490397806223F
:402F80001B487E1C8DF8281000F0D4F988B1194B33B9039B073323F007030833039314E003AB00932A46144B04A94046AFF3008007E003AB00932A460F4B04A9404600F0DD
:402FC00093F8B0F1FF3F824603D0099B5344099342E7AB895B0601D4099801E04FF0FF301DB0BDE8F08F00BF30420000364200003A42000000000000612D00002DE9F04781
:4030000091461F460A698B6806469342B8BF1346C9F8003091F843200C46DDF8208012B10133C9F800302368990642BFD9F800300233C9F80030256815F0060510D104F1AC
:40304000190A07E00123524639463046C04701301AD00135E368D9F800209B1A9D42F1DB94F843302268003318BF012392060FD5E118302081F843005A1C94F845102244AC
:40308000023382F8431003E04FF0FF30BDE8F08704F1430239463046C0470130F4D02268D9F80050E36802F00602042A08BF5D1B2269A3680CBF25EAE57500259342C4BFD2
:4030C0009B1AED184FF000091A344D4509D00123224639463046C0470130D5D009F10109F3E70020BDE8F0872DE9F04317460A7E85B06E2A984606460C460C9B01F1430E3C
:4031000000F0AE8011D8632A22D009D8002A00F0BB80582A40F0CA8081F84520834955E0642A1ED0692A1CD0C0E0732A00F0B08009D86F2A2ED0702A40F0B8800A6842F082
:4031400020020A603EE0752A24D0782A3AD0ADE01A6801F14205111D1960136884F84230A8E021681A6811F0800F02D0111D196008E011F0400F02F10401196002D0B2F94C
:40318000003000E01368002B3CDA2D225B4284F8432037E021681A6811F0800F02D0111D196007E011F0400F02F10401196001D0138800E01368227E5C496F2A14BF0A2201
:4031C00008221BE078225A4984F845202268186812F0800F00F104051D6003D1550601D5038800E00368D00744BF42F0200222601BB9226822F0200222601022002084F80D
:40320000430001E049490A226568002DA56008DB206820F0040020602BB9002D7DD175460CE0002B79D07546B3FBF2F002FB1033CB5C05F8013D03460028F5D1082A0BD102
:403240002368DA0708D5236962689A42DEBF302305F8013C05F1FF35C5EB0E0323612EE008681A6810F0800F496903D0101D1860136808E010F0400F02F1040018601368E5
:4032800001D0198000E0196000232361754616E01A68111D1960156800216268284600F049F808B1401B6060636804E004F1420584F8422001232361002384F84330CDF8A7
:4032C00000803B4603AA21463046FFF797FE013002D14FF0FF3026E023692A4639463046C0470130F5D023689B0710D5002504F1190907E001234A4639463046C04701303C
:40330000E7D00135E368039A9B1A9D42F2DBE068039B9842B8BF184605E00B7804F1420584F842308AE705B0BDE8F083414200005242000010B5C9B202449042034605D065
:403340001C7801308C42F8D1184610BD002010BD884210B501EB020301D8421E0BE09842FBD28118D21AD34204D013F8014D01F8014DF8E710BD994204D011F8014B02F8D6
:40338000014FF8E710BD000038B50546002944D051F8043C0C1F002BB8BFE41800F0D4F81E4A1368114613B96360146030E0A3420DD92268A018834201BF18685B68121842
:4033C000226063600C6023E0A24203D813465A68002AF9D118681918A1420BD12168014458188242196013D110685268014419605A600DE002D90C232B6009E02168601866
:40340000824201BF106852680918216062605C602846BDE8384000F098B838BD8081FF1F70B5CD1C25F0030508350C2D38BF0C25002D064601DBA94202D90C23336046E00B
:4034400000F082F8234B1C681A462146A1B10B685B1B0ED40B2B03D90B60CC18CD501EE08C420BBF63684B681360636018BF0C4615E00C464968E9E7174C23681BB930461B
:4034800000F052F820602946304600F04DF8431C18D0C41C24F00304A0420DD12560304600F053F804F10B00231D20F00700C31A0ED05A42E25070BD211A304600F034F826
:4034C0000130EBD10C233360304600F03EF8002070BD00BF8081FF1F7C81FF1FF8B5074615460E4621B91146BDE8F840FFF798BF1AB9FFF749FF2846F8BD00F027F885422D
:403500000ED929463846FFF78BFF044650B131462A46FFF7EDFB31463846FFF735FF01E03046F8BD2046F8BD38B5064C0023054608462360FDF7F0FE431C02D1236803B110
:403540002B6038BD5484FF1F7047704751F8040C0028BEBF091851F8043CC01804387047000000002020202020496E697469616C697A696E672E2E2E0D0A00002020202048
:40358000204F76657272756E20696E7465727275707420202020454E41424C45440D0A0020202020204649464F206D6F646520202020202020202020202053454C454354A2
:4035C00045440D0A0000000020202020204669666F206D6F6465202020202020202020202020454E41424C45440D0A00202020202046535220434F4E54524F4C20524547F6
:4036000049535445522034207375636365737366756C6C79207772697474656E2061733A203078253032580D0A00000020202020204572726F72206F636375727265642010
:40364000647572696E672049324320636F6D6D20746F2073657420636F6E74726F6C20726567697374657220340D0A002020202020534620434F4E54524F4C2052454749D6
:40368000535445522031207375636365737366756C6C79207772697474656E2061733A203078253032580D0A0000000020202020204572726F72206F6363757272656420DC
:4036C000647572696E672049324320636F6D6D20746F2073657420636F6E74726F6C20726567697374657220310D0A0020202020204F76657272756E20696E746572727560
:4037000070742020202044495341424C45440D0A000000002020202020425950415353206D6F64652020202020202020202053454C45435445440D0A00000000202020207F
:40374000204649464F206D6F646520202020202020202020202044495341424C45440D0A000000002020202020456C61707365642074696D653A2025646D73200D0A00004A
:4037800020202020203D3D3D3D3D3D3D3D3D3D3D3D3D3D3D3D3D3D3D3D3D3D3D3D3D3D3D3D3D3D3D3D3D3D3D3D3D3D3D3D3D3D3D3D3D3D3D3D3D3D3D3D3D3D3D3D3D3D3D5A
:4037C0003D3D3D3D0D0A000020202020207C202F2F2F2F2F2F2F2F2F2F2F2F2F2F2F20434F4E54524F4C2050414E4E454C20494E535452554354494F4E53202F2F2F2F2FC2
:403800002F2F2F2F2F2F2F2F2F2F207C0D0A000020202020207C202020202020202020202020202020202020202020202020202020202020202020202020202020202020A3
:40384000202020202020202020202020202020202020207C0D0A000020202020207C20203F202D2052657475726E2074686520636F6E74726F6C2070616E6E656C2020204D
:403880002020202020202020202020202020202020202020202020202020207C0D0A000020202020207C20206F202D2053756D6D617279206F6620746865206C617474655F
:4038C0007220636F6D6D616E647320656E746572656420202020202020202020202020202020207C0D0A000020202020207C202066202D20436F6E66696775726174696F11
:403900006E206F662074686520616363656C65726F6D6574657227732046554C4C205343414C452052414E474520207C0D0A000020202020207C2020202020202B2D2D2DE5
:403940002D2D2D2D2D2B2B2D2D2D2D2D2D2D2D2D2B2D2D2D2D2D2D2D2D2D2B2D2D2D2D2D2D2D2D2D2B2D2D2D2D2D2D2D2D2D2B202020207C0D0A000020202020207C2020A1
:40398000202020207C20206368617220207C7C2020202031202020207C2020202032202020207C2020202033202020207C2020202034202020207C202020207C0D0A000028
:4039C00020202020207C2020202020207C20204653522020207C7C20202B2D32672020207C20202B2D34672020207C20202B2D38672020207C20202B2D31366720207C207B
:403A00002020207C0D0A000020202020207C202070202D20436F6E66696775726174696F6E206F662074686520616363656C65726F6D6574657227732053414D504C494E63
:403A40004720465245512E202020207C0D0A000020202020207C2020202020207C20205346202020207C7C20202031487A2020207C2020203130487A20207C202020323592
:403A8000487A20207C2020203530487A20207C202020207C0D0A000020202020207C202076202D20537461727420454550524F4D20646174612076697375616C697A6174D7
:403AC000696F6E2020202020202020202020202020202020202020202020207C0D0A000020202020207C202075202D2053746F7020454550524F4D206461746120766973F5
:403B000075616C697A6174696F6E202020202020202020202020202020202020202020202020207C0D0A000020202020207C20206C202D204164646974696F6E616C2073D1
:403B4000656E736F727320646174612073746F72696E672020202020202020202020202020202020202020202020207C0D0A000020202020207C20202020202020202020DC
:403B80002020202020202B2D2D2D2D2D2D2D2D2B2B2D2D2D2D2D2D2D2D2D2B2D2D2D2D2D2D2D2D2D2B20202020202020202020202020207C0D0A000020202020207C20202D
:403BC00020202020202020202020202020207C20206368617220207C7C2020202030202020207C2020202031202020207C20202020202020202020202020207C0D0A0000C7
:403C000020202020207C202020202020202020202020202020207C202053454E5320207C7C2020204C44522020207C202020504F542020207C20202020202020202020208E
:403C40002020207C0D0A000020202020207C202062202D205374617274206163717569736974696F6E2066726F6D20616363656C65726F6D6574657220616E642064617454
:403C8000612073746F72696E6720207C0D0A000020202020207C202073202D2053746F70206163717569736974696F6E2066726F6D20616363656C65726F6D657465722090
:403CC000616E6420646174612073746F72696E672020207C0D0A000020202020205741524E494E4721213A20646F204E4F5420656E74657220636F6D6D616E6473206C69E3
:403D00006B652027504C462031323327206275742072617468657220275031204C3220463327200D0A00000020202020206578616D706C6520313A2069662027504C4620F0
:403D4000313233272061726520656E74657265642C20502C4C20616E6420462073746174757320666C616773206172652072657365742E200D0A000020202020206578618B
:403D80006D706C6520323A20696620274C332050312720202061726520656E74657265642C2050202020616E64204C2073746174757320666C61677320617265207265735F
:403DC00065742E200D0A000020202020206578616D706C6520333A206966202750352032272020202061726520656E74657265642C207468652073616D706C696E672066EB
:403E000072657175656E63792069732073657420746F203130487A2E200D0A002020202020456E74657220746865206E657720636F6D6D616E643A20200D0A00202020208A
:403E40002053756D6D617279206F6620746865206C6174746572206F7074696F6E7320656E74657265643A200D0A00002020202020202020202047656E6572616C20737489
:403E80006174653A20746865206163717569736974696F6E206973204E4F542072756E6E696E67200D0A00002020202020202020202047656E6572616C2073746174653A86
:403EC00020746865206163717569736974696F6E2069732072756E6E696E67200D0A00002020202020202046756C6C205363616C652052616E67653A204E4F54206D6F6411
:403F000069666965642079657420696E20746869732073657373696F6E200D0A000000002020202020202046756C6C205363616C652052616E67653A202B2D3267200D0ADA
:403F4000000000002020202020202046756C6C205363616C652052616E67653A202B2D3467200D0A000000002020202020202046756C6C205363616C652052616E67653A73
:403F8000202B2D3867200D0A000000002020202020202046756C6C205363616C652052616E67653A202B2D313667200D0A000000202020202053616D706C696E67204672C1
:403FC000657175656E63793A204E4F54206D6F6469666965642079657420696E20746869732073657373696F6E20200D0A000000202020202053616D706C696E67204672AC
:40400000657175656E63793A2031487A200D0A00202020202053616D706C696E67204672657175656E63793A203130487A200D0A00000000202020202053616D706C696E2D
:4040400067204672657175656E63793A203235487A200D0A00000000202020202053616D706C696E67204672657175656E63793A203530487A200D0A000000002020202068
:4040800020204164646974696F6E616C2053656E736F723A204E4F54206D6F6469666965642079657420696E20746869732073657373696F6E200D0A000000002020202065
:4040C00020204164646974696F6E616C2053656E736F723A204C4452200D0A002020202020204164646974696F6E616C2053656E736F723A20506F746574696F6D6574653E
:4041000072200D0A000000002020202020544845205055534820425554544F4E20484153204245454E2050524553534544200D0A000000002020202020546865206461743C
:40414000612073746F72696E6720686173206265656E20726573746172746564200D0A002020202020456E74657220746865206E657720636F6D6D616E643A200D0A0000A4
:40418000202020202035207365636F6E647320686176656E2774206265656E20656C617073656420796574200D0A00003D510040005B00403D510040005B0040088004404F
:4041C000035B00402443004040000000C84900401900004F00400C00405100403000F0510040100000000140000280020140000200050140000B001401400008004001406C
:40420000000A004C014000020050014020000000605200403C08004806000002014044080048800080040140C408004880004300232D302B2000686C4C00656667454647CE
:40424000003031323334353637383941424344454600303132333435363738396162636465660000F8B500BFF8BC08BC9E4670474D00000095130000F8B500BFF8BC08BCE2
:404280009E4670472900000098420000C880FF1F8000000010030000000000005884FF1F01FFFF000000E02EC05D00001800000000366E0100000000000000000000000086
:4042C00000000000000000000000000000000000000000002E420000000000000000000000000000000000000000000000000000000000000000000000000000000000004E
:404300000000000000000000000000000000000000000000E480FF1F00000000000000000000000000000000000000000000000000000000000000000000000000000000FB
:40434000000000000000000000000000000000000000000000000000000000000000000000000000000000000000000000000000000000000000000000000000000000003D
:4043800000000000000000000000000000000000000000000000000000000000000000000000000000000000000000000000000000000000000000000000000000000000FD
:4043C00000000000000000000000000000000000000000000000000000000000000000000000000000000000000000000000000000000000000000000000000000000000BD
:40440000000000000000000000000000000000000000000000000000000000000000000000000000000000000000000000000000000000000000000000000000000000007C
:020000040003F7
:0200000480007A
:40000000024F004005520040046400400365004001010140080201403B03014024040140440501400C070140610801403F0901400D0B01403C0C0140260D0140010F01401A
:40004000051501403D16014032170140521801403A190140471A0140401B0140084001400F4101400A42014002430140044401400A4501400546014001470140074801409F
:40008000144901400A4C0140104D0140085001400351014001300A4B00400140110218011901820F850D890F8D0D870D88728938E601B802BE01D409D604D804DB04DD108F
:4000C000DF010410058107100D020E220F081540168017041B011D3124082514261027082C0A2E802F80358037193C103D8A452347084C024D084E0855C056515704581005
:40010000594A6001634066206C086D406E026F957580810485408B418D01A701B301C0F0C2F0C4B0CAB0CCF0CEF0D0E0D230D60FD829E2A0E648EE020501100111011202C9
:4001400018061A01200429012C04320737013A083F40404149FF4AFF4BFF4F0150185280580459045A045B045C015D555F016040624064406540668068806A806C806E80AE
:4001800005800640071809120B080C880D020E020F081002124014021601172118201B041D031F10200124502504268027202B042C8A2E043101368037193B083C203D0810
:4001C0003E424242438046824D0957805C405D0972C08101941199809A519B199E20A008A110A201A402A502A912AC10AD80AE08B404C0F0C2FAC4D9CAF4CCF1CEF2D0996A
:40020000D6D0E004E640EA0A9320980299019A109E20A002A110A812AC10AD82AE04E8040301070208310A060E0C102C120317031E131F062431260E2A082B052D062F01B6
:40024000300F3230350738083A023B203E044003470449FF4A074BFF4C404D204EF04F055008580459045A045C225D025F01604061A8624063208210830C840185508826E9
:400280008A188D0290149228953197449D249E2A9F40A406A540A628A826A941AA08AB30AD70AF09B020B17CB201B41EB703B980BA20BE05C061C103C50CC6E0C70BC8190E
:4002C000C9FFCAFFCBFFCEF0CF44D00CD401D804D904DA04DB04DC22DD22DF01E6C0EA40EB02012002800320052007020A410E410F02103011201604170419281A801D08CC
:400300001E401F022101228223022510270429202A042B022D202F023280330436803704388839023E083F02420143044508482049204C404F0250045320560C5810590AFC
:400340005A8090109A019B109D01A920AB10C0CEC299C466CA3ECC5ACECBD04AD204D60F818082018D0190109D80A520AF20B302B410B504E640E810EA0804010E0111041E
:400380001301150117061A012F08310233013401350837043E10580459045C605F0188019101920595039604AE02B002B102B201B404B701BE10C040C106C5D0C620C70179
:4003C000C81AC9FFCAFFCBFFCDA0CF04D018D280D405D804D904DA04DB04DC44DD44DF01E040E2C0E440E540E6C0E8C0EAC0ECC0EEC0030805840A400B200D2013401820B8
:400400001A441F20210222402601272A2F023102330836013708424049014B20531859015A84734087208C109F02C0A2C24CC401CA10CCC3D001D204D60BE880EE02830299
:40044000AF80E008E401EA01EC1009050B0A0E011103130C14011D021F0D2D092F06310F350F36013B2254405604580459045B045C145D105F01850386028E029101920149
:40048000B102B402B601B701BE10C050C102C5D1C620C80BC9FFCAFFCBFFCDA0CF04D018D280D405D804D904DA04DB04DC44DD44DF01E040E2C0E440E540E6C0E8C0EAC02C
:4004C000ECC0EEC00180032005800B400E2019801A041F802102224027842C023102350137803B083D2043204620470449824A104B08532059025A846402661067A07340BE
:4005000093209780980299019A109E20A002A110B340C085C228CA10CC91CE22D004D208D60BD8F0E688EE800010040405E70609080509E70A0A10101104152017C8180EF3
:4005400019821B311C1024102C032D412E042F323118321033E0340F3503370438203E043F0156025711580459045B045C215D205F01820187018801920193019C01AC029E
:40058000B401B602B701B820BE40BF40C031C105C202C404C6E0C70CC818C9FFCAFFCBFFCC62CDA0CEF0CF41D00CD418D604D804D904DA04DB04DC02DD22DF01E640E702FD
:4005C000E910EA30EB10ED10EE10EF120102030404100502071009800A400D800E4A1202160117041BA01E28228024412508262827022D80310234103628370138083E14BF
:400600004041411043044A01500453105A015E206004610162806E146F01746890109A019B109D01A202B102B320C07AC2D9C4A1CA10CCE1CE62D00FD208D621D80DE688AE
:40064000000C02020301060108020A0C0C08100C110712021506160119011B061C0E1D072106220223012404280C29022D04300E310734013A023E10580459045C225F0135
:40068000801C811082618418850888678A188C248D188F06901C9262930694609506971899189A049D1E9E63A07FA11EA440A504A808A906AC10AD02AF01B01FB301B51EC9
:4006C000B660BA02BBA0D804D904DC22DF0100800102020103260582072409800A400B200D080E580F01102812101327141816011701180419021D011E41210225A0264457
:400700002705280829022A102B032C102D822E10300831A1364037263B013E403F06898093209404964198109B029D829F04A068A108A320A582B112B380C0FFC2FDC4FEC2
:40074000CAFDCCFFCED1E008E401EA01EC103004324037223B408240CCF0CE10E680308059016601810189408B028E019C049F22AF40CC10D640D880E220EE403E106140C7
:400780008C8099409C04A480AF20CE20D640EA4096109C0413027F20C408DE01002001015B108F10AF02B320C00AD401E402E8014508AD01B010D001EE01A50825108508E6
:4007C0008B029610B004C820E61012201640570175087B02822086409908A303AA10AF01B510C430D620DC80DE20E010E480EA80EE10132814407B107F4084408B08A5089F
:40080000C40EDE03E6011101750283108740890197809902A710AB20B102B508C408DE04E601E801EC08007608020A220C040E5010161A121C0600FF010F03C08280000039
:400840004300000001230004840000100408000084020000070838020A01103860080002840A0000560A09008000040000020008040C80337F000030800F00000200002039
:400880000000100035042000060EFCDB3DFFFFFF2200F008040000000000022404040404111100010000C00040011011C001001140014001000000000000000000000000BD
:4008C000000000000800008005100860024D04000D0000800E4D000009120464044D0A000D02000D044D090000010032040D0040007201080E8000700100000F00000088CF
:40090000000010014100000000EC020007FFFFFF008303011800000001000000040404041155000140004000404080008000800080008000000000000000000000000000DC
:40094000000000000060600060000000830050808300830000000000000B0B000000000016000116120002000000000001000001010001000C000000250018010000000059
:400980000000000000000000000000000000000000000000000000000000000000000000000000000000000000000000000000000000000000000000000000000000000037
:4009C00000000000000000000000000000000000000000000000000000000000000000000000000000000000000000000000000000000000000000000000000000000000F7
:400A000000000000000000000000000000000000000000000000000000000000000000000000000000000000000000000000000000000000000000000000000000000000B6
:400A40000000000000000000000000000000000000000000000000000000000000000000000000000000000000000000000000000000000000000000000000000000000076
:0200000490006A
:0400000000004005B7
:0200000490105A
:04000000BC90ACAF55
:0200000490303A
:02000000734942
:0200000490402A
:4000000000000000000000000000000000000000000000000000000000000000000000000000000000000000000000000000000000000000000000000000000000000000C0
:400040000000000000000000000000000000000000000000000000000000000000000000000000000000000000000000000000000000000000000000000000000000000080
:400080000000000000000000000000000000000000000000000000000000000000000000000000000000000000000000000000000000000000000000000000000000000040
:4000C0000000000000000000000000000000000000000000000000000000000000000000000000000000000000000000000000000000000000000000000000000000000000
:0200000490501A
:0C00000000012E16106900012E2F83B2A3
:00000001FF