:400000000080002011000000951A0000951A000008B5044B1A6803F53F5302331A6001F059FD00BFFA46004010B5054C237833B9044B13B10448AFF300800123237010BDC2
:400040005081FF1F00000000E0490000084B10B51BB108490848AFF300800848036803B910BD074B002BFBD0BDE81040184700BF000000005481FF1FE0490000C880FF1FA0
:4000800000000000000000002DE9F04FC3B00024BF4B1C70BF4B1C70BF4B1C70BF4B1C70BF4B1C70BF4B1C70BF4B1C70BF4B1C70BF4B1C70BF4B1C70BF4B1C70BF4B1C704C
:4000C000BF4B1C70BF4B1C70BF4B1C70BF4B1C70BF4B1C70BF4B1C70BF4B1C70A0238DF80030C0238DF8093001F07CFD02F0F4FA01F094F80A2002F0E9F802F093F802F09A
:4001000033FE03F047F862B6B44802F04DFFB44802F0E0FBB34802F0B5FBB34802F0B8F8B24803F065F8204602F018FF204601F0D1F80446012001F0CDF844EA002083B28A
:400140007F2B0BD88021002001F0DCF801F036F90021012001F0D6F801F030F9002001F0B9F80446012001F0B5F8000283B21C43A4B29F4D284601F065FD22469D4935A8A2
:4001800004F00AF835A801F05DFD284601F05AFD994801F057FD284601F054FD022001F099F8074617280AD0272808D0372806D0472804D0914801F045FD012408E03A4653
:4001C0008F4935A803F0E8FF35A801F03BFD0024032001F07FF8054680280BD0902809D0A02807D0B02805D0864801F02BFD0134E4B207E02A46844935A803F0CDFF35A8C1
:4002000001F020FD042001F065F88146012805D97E4801F017FD0134E4B207E00246784935A803F0B9FF35A801F00CFD052001F051F88046012805D9754801F003FD01347C
:40024000E4B207E00246734935A803F0A5FF35A801F0F8FC002C65D04FF0000A594B83F800A002F037FF02F04FFF52462221182001F00CF852462E21182001F007F8524647
:400280002421182001F002F8634801F0DBFC17222021182000F0FAFF38B9604801F0D2FC4FF47A7000F04EFC02E05D4801F0CAFC80222321182000F0E9FF30B90422594B22
:4002C0001A80594801F0BEFC02E0584801F0BAFC002001F0B7FF564801F0B4FC1721022001F010F801F06AF8524801F0ABFC8021032001F007F801F061F84F4801F0A2FCED
:400300000121042000F0FEFF01F058F84B4801F099FC0021052000F0F5FF01F04FF8484801F090FC002C40F0EA80272F0DD002D8172F05D014E0372F0BD0472F0DD00FE05C
:400340004FF47A7000F0FEFB0AE0642000F0FAFB06E0282000F0F6FB02E0142000F0F2FB902D0CD002D8802D05D06EE0A02D0AD0B02D67D069E004222A4B1A8065E0082227
:40038000284B1A8061E01022264B1A805DE000BF3084FF1FE883FF1FE483FF1FD381FF1FE283FF1F9A83FF1FE583FF1FEC83FF1F9C83FF1FED83FF1F5483FF1F9D83FF1F95
:4003C000D281FF1FE683FF1FE983FF1F9B83FF1F9983FF1FE783FF1FE383FF1F7D0C00007511000089110000610B0000B50B000028560000E4490000204A0000404A000085
:40040000744A0000A84A0000DC4A0000104B0000444B0000784B0000AC4B0000D84B0000044C0000EA83FF1F444C0000704C0000AC4C0000E04C0000204D0000604D0000BA
:40044000A04D00003022A04B1A803A462021182000F01CFF2A462321182000F017FF00222E21182000F012FF40222E21182000F00DFFB9F1000F02D1012001F0E3FEB9F10A
:40048000010F02D1002001F0DDFEB8F1000F17D100248E4B1C708E4B1C7002F01BFE02F033FE22462221182000F0F0FE22462E21182000F0EBFE22462421182000F0E6FE6F
:4004C000B8F1010F1BD10123814A13707F4A137002F01AFE02F05EFE02222221182000F0D5FE40222E21182000F0D0FE40222421182000F0CBFE02F0CBFD00F0AFFB754C8B
:40050000204601F09FFB744801F09CFB204601F099FB02222221182000F0B8FE10B96F4801F090FB40222E21182000F0AFFE10B96B4801F087FB40222421182000F0A6FE72
:4005400010B9684801F07EFB00F040FF664B1B78DBB2012B09D15D4B1978052000F0D2FE00F02CFF0022604B1A70604B1B78DBB2012B0BD15E4B19780139C9B2042000F02C
:40058000C1FE00F01BFF0022584B1A70594B1B78DBB2012B3FD1584B1A782321182000F075FE044690B9544D2978032000F0AAFE00F004FF2A78514935A803F0EDFD35A8B9
:4005C00001F040FB00224B4B1A7002E04C4801F039FB2CB900222E21182000F057FE044624B940222E21182000F050FE454801F029FB8021002000F085FE00F0DFFE00210D
:40060000012000F07FFE00F0D9FE3F4801F01AFB00223E4B1A703E4B1B78DBB2012B3FD13C4B1A782021182000F030FE044690B9384D2978022000F065FE00F0BFFE2A7891
:40064000354935A803F0A8FD35A801F0FBFA00222F4B1A7002E0314801F0F4FA2CB900222E21182000F012FE044624B940222E21182000F00BFE234801F0E4FA80210020D2
:4006800000F040FE00F09AFE0021012000F03AFE00F094FE1C4801F0D5FA00221B4B1A700B4B1B78DBB2012B40F0D9801C4B1B78DBB2012B40F0D3801A4B1B78DBB2012B50
:4006C00040F0CD8087E000BFEA83FF1FED83FF1FE683FF1F28560000E04D0000044E0000384E00006C4E0000D381FF1FE483FF1FD281FF1F3084FF1FE283FF1FA04E0000CF
:40070000E84E0000284F00004C4F0000E783FF1FE883FF1F9A83FF1F584F0000A04F00009883FF1FE383FF1F470039184B001C1DB349645C5D1D15F801C042AE06EB020EC1
:40074000A40944EA8C040EF8FC4C02F1010E5FFA8EFE6D5C9C1C645C04F0C00403F1030C1CF8018008F00F08B644AD0945EA241444EA08140EF8FC4C02F1020E5FFA8EFEA2
:400780001CF801405D5C03F1010C1CF80130B644AD0845EA141444EA83140EF8FC4CD31CDBB211F80C103344890803F8FC1C131DDBB2944911F81040334403F8FC4C531DF3
:4007C000DBB20137C95D334403F8FC1C0632D2B20130C0B201E0002002461F28A4D9002000F078FD0446012000F074FD44EA002085B247F6FE739D420FD922E0A1016E18A3
:400800001FFA86FB402203AB1944584600F0A8FD00F0D4FD0134A4B200E00024022CEDD90BF1400189B20C0AC9B2002000F06AFD00F0C4FD2146012000F064FD00F0BEFD85
:4008400004E00122704B1A7000F010FA02F05CFC00236E4A13706E4A13706E4A13706E4B1B78DBB2012B40F0B880002000F032FD0546012000F02EFD45EA002085B28024B7
:40088000A3E001F005FA062233A9204600F056FD9DF8CE20910001F0C0019DF8CFE04FEA8E0E4EEA921E5FFA8EFE9DF8CD301F0107F0C007120142EA1312D2B29DF8CCC0F3
:4008C0004FEA8C10C0B29B0143EA9C03DBB241EA0E2141F3891847EA022747F3891740EA032040F3891003F073FA81464B4E308800B203F06DFA494603F0BEFA02F020FF71
:400900003DA3D3E9002302F06FFF0022444B02F0B9FD03F07BF90FFA80F9384603F058FA0746308800B203F053FA394603F0A4FA02F006FF30A3D3E9002302F055FF00227B
:40094000374B02F09FFD03F061F907B2404603F03FFA8046308800B203F03AFA414603F08BFA02F0EDFE24A3D3E9002302F03CFF00222B4B02F086FD03F048F900B28DF831
:400980000190C9F307298DF802908DF80370C7F307278DF804708DF80500C0F307208DF806009DF8D0308DF807309DF8D1308DF808300A21684601F057F90A2001F086FC80
:4009C0000634A4B2A54200D88024AC4205D2124B1B7813F0FF0F7FF454AF124B1B78DBB2012B04D100F0AEFD00220E4B1A700E4B187800F03FFEA9E53108AC1C5A64EF3F19
:400A0000D481FF1FA083FF1FE783FF1FE083FF1F9883FF1FE383FF1FE983FF1FEA83FF1F0000E03F9B83FF1F9983FF1F10B50446002001F0EBFB204601F0F2FC01F0C8FC92
:400A400010F0080FFAD001F055FD0446012001F0DDFB204610BD00BF10B50446002001F0D5FB204601F0DCFC002001F0D9FC01F0AFFC10F0010FFAD001F03CFD01F03AFD5F
:400A80000446012001F0C2FB204610BD2DE9F04383B006460C4617469846002001F0B6FB64B2002511E02146082CA8BF0821C9B206EBC50001F09AFD01F08AFC10F0010F3C
:400AC000FAD0083C64B201356DB2002CEBDC01F09DFD01F041FD0026009601964FFA88F820E0C146B8F1080FA8BF4FF008095FFA89F1684601F07AFD01F06AFC10F0010FE6
:400B0000FAD0002406E004EBC60501F0F3FC78550134E4B24C45F6DBA8F108084FFA88F8013676B2B8F1000FDBDC012001F06EFB01F06CFD01F010FD01F02EFD03B0BDE8C6
:400B4000F08300BF10B5044602F0C4FA02F0DCFA204602F0DFFA02F0D7FA02F01BFB10BD10B5114BC0222821182000F05DFB30B110BD0D4AD15C0D4AD154013301E004461A
:400B80000023BF2BF5DD2CB900222E21182000F07DFB044624B940222E21182000F076FB0122034B1A7010BD9482FF1FD481FF1F9883FF1F38B502F0A7FA234B1B78DBB239
:400BC0001F2B29D8204C2578EDB202F0B1F980B21E4A22F815002378DBB232F813302378DBB232F813302378DBB22178C9B232F81110C9B2164800F8131023785B000133CE
:400C00002178C9B232F81120C2F30722C25423780133DBB2237038BD0B4B1B78DBB2202B10D106E00A4AD25CD2B20A49CA54013300E000233F2BF5DD0022034B1A700122DE
:400C4000054B1A7038BD00BFE083FF1F9081FF1FF083FF1FA083FF1FE383FF1F08B5C72002F0C6F9642002F0C9F908BD08B5312002F0BEF9182002F0C1F908BD70B500F019
:400C8000BFFF894B18703038462800F22B82DFE810F0F90029018201C001F30129022902290229022902290229022902290229024700290229024D00290229022902B500B5
:400CC00029022902290229022902BD00290229022602B9002902290288002902EC00C100290229022902290229022902290229022902290229024D00290229022902B50017
:400D000029022902290229022902BD00290229022602B9002902290288002902EC00C1000022624B1A7000F051FBDBE10123604A1370604A1370604A137002F0E5F902F074
:400D400029FA02222221182000F0A0FA5B4C207040222E21182000F099FA207040222421182000F093FA2070554800F06BFF237813B9544800F066FF514800F063FF02F0DC
:400D800087F9514B1B7813F0FF0F01D1FFF766FF4D4B1B78DBB2012B40F0A481FFF766FFA0E10024424B1C70424B1C700122424B1A7002F08FF902F0A7F9224622211820B2
:400DC00000F064FA3D4D287022462E21182000F05DFA287022462421182000F057FA2870374800F02FFF2B7813B9384800F02AFF334800F027FF02F0EDF873E10122344BF4
:400E00001A706FE10122334B1A706BE10122324B1A7067E10024264B1C700126234B1E70244B1C7002F056F902F06EF901F0B0FF01F04AFD01F020FD22462221182000F05D
:400E400025FA1E4D287022462E21182000F01EFA287022462421182000F018FA2870304602F07CF802F0B6F83CE100240F4B1C7001F07AFF01F022FD01F0F8FC204602F0E8
:400E80006DF82FE1144B1B78DBB2012B40F02A810022114B1A700120104B1870104B187001F0D0F91EE100BF3184FF1FE983FF1FE683FF1FED83FF1FD381FF1F3284FF1F18
:400EC00028560000E04F0000E783FF1FFC4F0000E583FF1FEC83FF1F9C83FF1FD281FF1FE483FF1F964B1B78DBB2012B17D1954B1B7813F0FF0F12D1934B1B7813F0FF0F2E
:400F00000DD100228E4B1A700123904A137080218F4A11708F4A137004228F4B1A80884B1B7813F0FF0F18D1864B1B78DBB2012B13D1854B1B7813F0FF0F0ED10022814B3A
:400F40001A700123854A13701721854A1170854A13704FF47A70FFF7F5FD794B1B7813F0FF0F40F0BF80774B1B7813F0FF0F40F0B980754B1B78DBB2012B40F0B38000204D
:400F8000714B18700222784B1A700122774B1A7001F058F9A6E06A4B1B78DBB2012B18D1684B1B7813F0FF0F13D1674B1B7813F0FF0F0ED10022624B1A700222634B1A7036
:400FC0009022634B1A700122624B1A700822624B1A805B4B1B7813F0FF0F40F08380594B1B78DBB2012B7DD1574B1B7813F0FF0F78D10022534B1A700222584B1A7027220E
:40100000574B1A700122574B1A706420FFF79AFD68E04B4B1B78DBB2012B13D1494B1B7813F0FF0F0ED10022454B1A700322474B1A70A022464B1A700122464B1A70102235
:40104000454B1A803E4B1B7813F0FF0F4AD13D4B1B78DBB2012B45D100223A4B1A7003223E4B1A7037223E4B1A7001223D4B1A702820FFF767FD35E0314B1B78DBB2012B8B
:4010800013D1304B1B7813F0FF0F0ED100222C4B1A7004222D4B1A70B0222D4B1A7001222C4B1A7030222C4B1A80254B1B7813F0FF0F17D1234B1B78DBB2012B12D10022ED
:4010C000204B1A700422254B1A704722244B1A700122244B1A701420FFF734FD02E00122234B1A70164B1B78DBB2012B09D1154B1B78DBB2012B04D10023114A1370114AA1
:401100001370114B1B78DBB2012B09D10D4B1B78DBB2012B04D100230B4A1370094A1370094B1B78DBB2012B09D1054B1B78DBB2012B04D10023044A1370014A137070BD86
:40114000E583FF1FEC83FF1F9C83FF1F5483FF1FE283FF1F3084FF1FEA83FF1F9D83FF1F9A83FF1FE883FF1FD281FF1FE483FF1F9B83FF1F08B50122024B1A7001F014FC5E
:4011800008BD00BF6C81FF1F1F4B1B78012B39D110B501F0DBFB1C4C6080002001F0D0FB0023237063884EF27762934210D80121164A1170C3F56A43603303EB83039BB28A
:4011C000134A1380128892B21249134802F0E4FF0D4B5B884EF27862934210D902210B4A1170C3F56A43603303EB83039BB2084A1380128892B20749074802F0CDFF01F0C0
:401200007FFB10BD704700BF6C81FF1F9983FF1FD081FF1F185000005883FF1F08B500F08FFD002008BD00BF2DE9F04180460C4616461F46002100F0FFFE0546F0B944F0A9
:40124000800000F08BFF0546C0B90121404600F033FF054650B111E0C4EB0608012000F0A9FF07F80800013CE4B200E03446012CF2D8013E002000F09DFFB85500F052FFCF
:40128000281C18BF0120BDE8F08100BF70B50D461646002100F0D0FE044640B9284600F05DFF044618B9304600F058FF044600F039FF201C18BF012070BD00BF08B5052021
:4012C000FFF7CAFB08BD00BF08B50620FFF7AEFB08BD00BF00B583B003218DF80410030A8DF805308DF8060002AA002302F8053D012301A8FFF7CAFB9DF8030003B05DF87F
:4013000004FB00BF30B583B004460D46FFF7DCFF02238DF80430230A8DF805308DF806408DF80750002302AA02F8053D04210DEB0100FFF7ABFB03B030BD00BF10B582B0E2
:4013400003248DF80440030A8DF805308DF8060013460A46214601A8FFF798FB02B010BD2DE9F04182B000AF054688461446FFF7ABFF012000F0C0FFE61C04F10A0323F048
:401380000703ADEB030D02238DF800302B0A8DF801308DF80250224641460DF1030002F0E7FE002307F1080202F8013DF1B26846FFF76CFB0837BD46BDE8F08108B5FFF702
:4013C0007DFF10F0010FFAD108BD00BF2DE9F041434E304600F036FC424F384600F032FC414800F02FFC384600F02CFC3F4C204600F028FC3E4800F025FC3E4800F022FC0B
:40140000204600F01FFC3C4800F01CFC3B4D284600F018FCDFF82881404600F013FC284600F010FC364800F00DFC284600F00AFC204600F007FC334800F004FC284600F049
:4014400001FC404600F0FEFB284600F0FBFB2E4800F0F8FB284600F0F5FB204600F0F2FB2A4800F0EFFB2A4800F0ECFB294800F0E9FB294D284600F0E5FB284800F0E2FBF7
:40148000284600F0DFFB264800F0DCFB284600F0D9FB204600F0D6FB224800F0D3FB224800F0D0FB204600F0CDFB384600F0CAFB304600F0C7FB1D4800F0C4FB1C4800F038
:4014C000C1FB1C4800F0BEFB1B4800F0BBFB304600F0B8FB194800F0B5FBBDE8F08100BF28560000345000007C500000C45000000C510000545100009C510000E451000025
:4015000074520000BC520000045300004C53000094530000DC530000245400006C540000B4540000FC540000445500008C550000DC5500002C5600007C560000D056000016
:401540002C52000008B5354800F07CFB344800F079FB344B1B7823B103F0FF02012A04D006E0314800F06EFB02E0304800F06AFB2F4B1B78DBB2042B17D8DFE803F00307B0
:401580000B0F13002B4800F05DFB0EE02A4800F059FB0AE0294800F055FB06E0284800F051FB02E0274800F04DFB274B1B78DBB2042B17D8DFE803F003070B0F13002348DD
:4015C00000F040FB0EE0224800F03CFB0AE0214800F038FB06E0204800F034FB02E01F4800F030FB1E4B1B78DBB2012B07D013B1022B08D00AE01B4800F024FB06E01A4801
:4016000000F020FB02E0194800F01CFB034800F019FB174800F016FB08BD00BFEC560000F0560000ED83FF1F205700005C5700005483FF1F94570000D4570000F857000088
:401640001C580000405800009D83FF1F64580000A4580000C4580000E85800000C590000D281FF1F305900007059000090590000D056000010B5012802D0022824D010BD2A
:401680001B4C204600F0DEFA1A4800F0DBFA1A4800F0D8FA80210020FFF734FEFFF78EFE00210120FFF72EFEFFF788FE134800F0C9FA204600F0C6FAFFF7D0FA0023104A9E
:4016C0001370104A137010BD094C204600F0BAFA084800F0B7FA084800F0B4FA0A4800F0B1FA204600F0AEFA0022064B1A7010BDEC560000BC5900005883FF1FE859000039
:40170000E783FF1F9983FF1F145A0000FEE700BFF0B40022174611E050F82760F3B226F0FF0608E001EB420511F812406D78A5550132013BDBB2002BF4D10137232FEBD9A3
:40174000F0BC7047084B1B78DBB203F00701074A11701B09013213705022054B1A704422A3F2E2231A707047CF0100496E580040585B004008B50A46002102F004FD08BD67
:4017800008B502F0F5FC08BD70B500243B4B1C80502202331A70032602331E801823384A13701925023215800232137045F6BF51023211800232137043F6972302321380AD
:4017C00002321570023213802E4B1D704EF65F2202331A8002331D7004222B492B48FFF7CFFF02222A4B1A7008224FF040231A7003F500731E70274B1B78DBB226490B704E
:40180000264B1A8041F25122023B1A800CE0244B1B7803F0010343EA440404F003044FF4F07001F019FE013D0DB1032CEFD115B90320FFF76BFF1B4B4FF480721A80072286
:401840001A70002218490A704820023108701A700222033B1A7004220A331A70134A137843F07F031370013A137843F001031370013A137843F08003137070BD804000409F
:40188000864000409640004000080048004100400043004008010049A146004022420040254200400440004006400040A2430040012814D810B44000C0B2094B53F820106B
:4018C0001A18147C0A7822430A700130C0B253F820201844017C13780B43137010BC7047405A0000012816D810B44000C0B20A4B53F820101A18147C0A7822EA04020A7018
:401900000130C0B253F820201844017C137823EA0103137010BC7047405A0000012808D8044B03EB800252691844017F13780B4313707047405A0000012809D8054B03EB10
:40194000800252691844017F137823EA01031370704700BF405A000038B572B6394A137843F00403137000240BE0374863001A19510001440A46898C106AFFF7FBFE013482
:40198000E4B20B2CF1D900240CE02F48A20011194B000344B3F87020D96E986EFFF7F0FE0134E4B2032CF0D928494FF09040FFF7AFFE0A24264B1C70264A137843F00203FB
:4019C00013701032137843F002031370224D2B7843F040032B70A2F58632513A137843F01003137008221D491D48FFF7C9FE22461C491D48FFF7C4FE08221C491C48FFF706
:401A0000BFFE22461B491C48FFF7BAFE22461B491B48FFF7B5FE1B4A137843F008031370194C61232370FFF7AFFE812323700122164B1A70FFF786FE0E2229461448FFF7B3
:401A40009FFE38BDE8460040405A0000900000488358004003500140A0430040CC07004802510040D4070048C0510040E007004812510040E807004820510040F407004803
:401A800030510040224300400048004004000840B043004008B502F03FFB03680C2B00D1FEE7FEE708B5094B1A681044084BC31A802B02DC054B186005E002F02DFB0C23FD
:401AC00003604FF0FF32104608BD00BFCC80FF1FA084FF1F08B5104E104D16E029686B68AC68002204E051F8040B43F8040B0432A242F8D1E868002203E0002143F8041B4C
:401B000004328242F9D11035013E002EE6D102F009FBFEF7B9FAFEE7010000002C5B000008B5104A104B1A60104A136843F40073136000230AE0032B03D80D4A52F82310A5
:401B400000E00C490C4A42F8231001332F2BF2D90A4B1A780A4B1A70074A0A4B1A60FFF7FBFE08BD0004FA050CED00E014ED00E000000000951A00000080FF1FBC760040FE
:401B8000C080FF1F08ED00E07222074B1A702022023B1A7006225E3B1A70472210331A700022B33B1A7070478B65004010B501F05BFC04460A4A137843F020031370023A2C
:401BC000137843F010031370A2F20112137843F01003137000F06AFB204601F049FC10BD9B65004008B5054B1B7823B9FFF7CCFF0122024B1A70FFF7D9FF08BD7081FF1FBF
:401C0000084B1B78DBB213F0200F06D0064A1078C0B213F01E0F02D17047002070470020704700BF6965004048650040034B1B7813F0040FFAD1024B187070476864004063
:401C40004864004038B5074B1B782BB938BDFFF7EDFF0134A4B201E005460024285D0028F5D138BD7081FF1F084B1B7833B97047305DFFF7DBFF0134E4B203E070B50D468D
:401C800006460024AC42F3D370BD00BF7081FF1F08B501F0E9FB064B1A7842F001021A701A7802F0FE021A7001F0E2FB08BD00BF9864004038B50222114B1A7081220E3B52
:401CC0001A70082202331A700F2511331D70002401331C704FF400420A4B1A600721284600F028FB0849284600F010FB1022074B1A70074B1C70074B1C70074B1C7038BD34
:401D0000D649004080E100E0691D00003384FF1F4184FF1F3484FF1F3584FF1F08B501F0A3FB064A137843F0040313701032137843F00403137001F09BFB08BDA543004036
:401D400008B5074B1B7823B9FFF7B4FF0122044B1A70FFF7E3FF4FF40042024B1A6008BD7281FF1F00E100E038B5A54B1C78A54B1B7813F0400F00F03A81E4B214F0010FEA
:401D800000F01D819F4B1B78453B052B00F21481DFE813F006008200120112010600DF0004F0DF0504F00A04082C42D1954B1B78DBB2452B35D1944B1B7813F0FF0F10D08A
:401DC000924B1B681B78DBB2914A137004228C4B1A7001228F4B1A7046228A4B1A702C46EDE08D4B1B7813F0020F0DD08B4A137843F00A0313706022824B1A704FF4004214
:401E0000874B1A602C46DAE0864A137843F0100313701022844B1A700422023B1A702C46CDE00022764B1A704A22764B1A702C46C5E00A2C2BD1794A137843F0A00313705B
:401E4000754B1B7813F0020F14D06E4B1B7813F0080F01D0092300E00A23704A11780B4313706022674B1A704FF400426C4B1A602C46A4E06B4A137843F0100313701022EE
:401E8000694B1A700422023B1A702C4697E0002000F01AFA2C4692E014F0020F36D15D4B1A78D2B2584B1B78DBB29A4210D2594A1378DBB255490968CB5CDBB254490B7015
:401EC00004214F4B197013780133DBB2137076E0514B1B7813F0020F0CD0504A137843F00A0313706022474B1A704FF400424C4B1A6064E04B4A137843F0100313701022DB
:401F0000494B1A700422023B1A7058E0424B1B7813F0020F0CD0414A137843F09A0313706022384B1A704FF400423D4B1A6046E03C4A137843F01003137010223A4B1A708E
:401F40000422023B1A70354A137843F09003137035E0364A1378DBB2354908682C490978C9B2C15413780133DBB213701278D2B2304B1B78DBB29A4203D21022204B1A70B0
:401F80001DE0254B1B7813F0020F0CD0234A137843F00903137060221A4B1A704FF400421F4B1A600BE01F4A137843F0100313700022134B1A7002E0002000F085F914F077
:401FC000200F1CD00F4B1B7813F0080F01D0012300E00223114A11780B431370114A137803F0EF0313701022064B1A7038BD054B1B7813F0100F02D11022024B1A7038BDEA
:40200000D74900403384FF1F3684FF1F3884FF1FD84900403584FF1F4084FF1F4184FF1F80E100E0D6490040D94900403484FF1F3C84FF1F4284FF1F1A4B1B78DBB2102B62
:4020400029D1194B1B7813F0080F26D14FF40042164B1A604000C0B229B140F001004922104B1A7002E045220E4B1A70104B1870012201331A700F4B1B7813F0010FFAD037
:402080000C4B1B7803F00A030A2B08D11022054B1A700320704702207047012070470020704700BF3384FF1FD949004080E100E0D8490040D7490040164B1B7813F0040FB8
:4020C00023D04000C0B229B140F001004922124B1A7002E04522104B1A70104B1870122201331A700422023B1A700D4B1B7813F0010FFAD00A4B1B7803F00A030A2B06D132
:402100001022054B1A7003207047022070470020704700BFD94900403384FF1FD8490040D74900400A4B1B7813F0040F0ED01023074A13700421023A1170064A1370064B69
:402140001B7813F0210FFAD00020704702207047D94900403384FF1FD7490040114B1B7813F0040F1BD0104B18700422013B1A7046220E4B1A700E4B1B7813F0010FFAD0B5
:402180000B4B1B7813F0020F04D16022074B1A70002070476022054B1A70032070470220704700BFD9490040D84900403384FF1FD7490040114B1B7813F0040F1BD0104B07
:4021C0001B78DBB2492B05D100220E4B1A704A220B4B1A700B4B1B7813F0010FFAD00A4B1B78DBB218B11021064A117004E06021034A117000E0002318467047D949004071
:402200003384FF1FD7490040D8490040044A137803F0EF03000100F010001843107070472051004010B5002404E02046FFF75AFB0134E4B2012CF8D9FF22014B1A7010BDFB
:40224000D080FF1F10B50446FFF7ECFF2046FFF72FFB014B1C7010BDD080FF1F014B1B681865704708ED00E04001C0B2014B1870704700BF04E400E01022014B1A6070471B
:4022800000E100E01022014B1A60704780E100E010B50446FFF7F6FF2046FFF7DFFF0720FFF7E2FFFFF7E8FF10BD00BF054A137843F0040313701032137843F004031370B1
:4022C000704700BFA243004001BE704710B5044605E0084B186801F0BFF8A4F50044B4F5004FF6D8034B586800FB04F001F0B4F810BD00BFD480FF1F08B5034B1B7A00FB88
:4023000003F001F0A9F808BDD480FF1F70B504460E46074B1D681F2802D90020FFF7D4FF04F01F04103455F8240045F8246070BD08ED00E038B504460D46072902D90020F8
:40234000FFF7C2FF1F2C02D90020FFF7BDFF04F01F0000F1604000F564406D01EDB2057038BD00BF0822014B1A60704700E100E00422014B1A60704700E100E008B501F0C1
:4023800073F80C4A137843F020031370023A137843F0100313700132137843F01003137001F066F800F046FAFFF7DCFFFFF7E0FF08BD00BF946400400822014B1A60704759
:4023C00080E100E00422014B1A60704780E100E010B5FFF7F1FF064B1C78064A137803F009031C4300231370FFF7BCFF204610BD626400404484FF1F10B5FFF7E3FF064B8B
:402400001B78064A147804F040041C4300231370FFF7AEFF204610BD636400408D84FF1F10B504462B4B1A7802F0FF0312B1013BDBB200E03F23284A1278D2B29342F1D0F5
:40244000FFF7BAFF254B1978254A137803F009030B4313701F4B1A78D2B21F4B1B78DBB29A4207D11E4B1B7813F0040F02D01D4B1C702CE0184A13780133DBB21370137884
:40248000DBB23F2B02D90022134B1A70124B1A78D2B2104B1B78DBB29A420ED10D4A13780133DBB213701378DBB23F2B02D90022084B1A7001220C4B1A70074B1B78DBB29F
:4024C0000A4AD4540A4A137843F004031370FFF749FF10BD8E84FF1F8C84FF1F626400404484FF1F436400408884FF1F4884FF1F8264004010B5FFF765FF134B1A78D2B2BB
:40250000124B1B78DBB29A4214D0114B1B7813F0FF0F0CD10C4A13780133DBB213701378DBB2072B06D90022074B1A7002E00022074B1A70044B1B78DBB2064AD45CE4B2D0
:40254000FFF716FF204610BD8B84FF1F8984FF1F8A84FF1F9084FF1F08B501E0094B1B78094B1B7813F0200FF8D1FFF72BFF0023064A1370064A1370064A1370FFF7F8FE58
:4025800008BD00BF53640040636400408A84FF1F8B84FF1F8984FF1F08B500F065FF0E4B1A7842F001021A701A7802F0FE021A7000F05EFFFFF700FF0023084A1370084AC0
:4025C0001370084A1370084A137803F0FB031370FFF7C8FE08BD00BF936400408884FF1F8E84FF1F8C84FF1F8264004070B506460C46002506E0705DFFF712FF0135EDB296
:40260000013CE4B2002CF6D170BD00BF08B501E00A4B1B780A4B1B7813F0200FF8D100F023FF084B1A7842F001021A701A7802F0FE021A7000F01CFF08BD00BF5364004035
:40264000636400409364004010B50F22174B1A70174C0823236007210320FFF76BFE15490320FFF753FE0423236007210220FFF761FE11490220FFF749FEFFF7C7FF0024D5
:402680000E4B1C700E4B1C700E4B1C700E4B1C700E4B1C700E4B1C70FFF79AFEFFF7ACFE0C4B1C70202201331A7010BD8464004080E100E0F5260000952700008A84FF1F72
:4026C0008B84FF1F8984FF1F8884FF1F8E84FF1F8C84FF1F8264004008B5054B1B7823B9FFF7B2FF0122024B1A70FFF747FE08BD7381FF1F28E01F4B19781F4A137803F0BB
:4027000009030B431370137813F0040F24D01B4B1B7813F0FF0F0CD1194A13780133DBB213701378DBB23F2B06D90022144B1A7002E00022114B1A70114B1B78DBB2114AE1
:40274000D35CDBB2104A13700D4B1A78D2B20F4B1B78DBB29A42CED1094B1A78D2B20B4B1B78DBB29A4204D1094A137803F0FB0313707047626400404484FF1F8884FF1FAD
:402780008E84FF1F4884FF1F436400408C84FF1F82640040204B1A7820490B7803F0400313430B7032E01E4B1A78D2B21D490B780133DBB20B700B78DBB2072B02D90021E0
:4027C000184B1970174B1978C9B2174B1B78DBB299420ED114490B780133DBB20B700B78DBB2072B02D900210F4B197001210F4B19700C4B1B78DBB20D49CA54064B1A7833
:4028000006490B7803F0400313430B70034B1B7813F0200FC7D17047636400408D84FF1F536400408984FF1F8B84FF1F8A84FF1F9084FF1F054A137843F0020313701032A3
:40284000137843F002031370704700BFA2430040014B1B681864704708ED00E04001C0B2014B1870704700BF00E400E00122014B1A60704700E100E00122014B1A607047DE
:4028800080E100E010B50446FFF7F6FF2046FFF7DFFF0720FFF7E2FFFFF7E8FF10BD00BF014B1B685864704708ED00E04001C0B2014B1870704700BF01E400E00222014BF3
:4028C0001A60704700E100E00222014B1A60704780E100E010B50446FFF7F6FF2046FFF7DFFF0720FFF7E2FFFFF7E8FF10BD00BF024A137843F08003137070477564004089
:40290000024A137803F07F031370704775640040014B1870704700BF85640040014B1878704700BF65640040014B1880704700BF48680040014B188880B2704788680040DB
:40294000014B1880704700BF08680040024B1B78024B188880B27047046400408868004008B501E0FFF7E6FFFFF7D8FF10F0080FF8D108BD08B54EF65F20FFF7D5FF4EF646
:402980005F20FFF7DDFF00F06FFD064A137843F01003137000F06CFDFFF7E2FF0020FFF7B7FF08BD9564004008B5054B1B7823B9FFF7E0FF0122024B1A70FFF799FF08BD2E
:4029C0007481FF1F10B59DF80840012C51D1013809282ED8DFE800F0052D2D052D2D0F192D230F2B03D92548007840B222E02448007840B21EE00F2B03D92248007840B2C9
:402A000018E02148007840B214E00F2B03D91F48007840B20EE01E48007840B20AE00F2B03D91C48007840B204E01B48007840B200E0002001EB401101FB02F1C90B8AB277
:402A40000D2B0BD8C3F10E0289B211418AB2611E124800EB810101338B7005E0631E0F4901EB83030F219970013C0C4B23F8242010BD0020FFF728FC10BD00BF18010049E8
:402A80001C010049190100491D0100491A0100491E0100491B0100491F0100497881FF1FF8B5074600F0E0FC06460D4D2B7843F003032B700B4C237843F0030323700A4B3F
:402AC0001F700320FFF718FC2B7803F0FC032B70237803F0FC032370304600F0C9FCF8BDF8460040F9460040925800400022324B1A7101285FD170B53822304B1A70042296
:402B000002331A70062201331A70002401331C7001331C703F2201331A7002331C7001331C7001331C7001250A331D70502203F527631A700A2201331A702C2201331A7088
:402B400001331C70442203331A70482201331A7001331D7002331D70112201331A70192201331A70972201331A705220FFF798FF5822134B1A7001331C70052605331E7051
:402B8000022201331A7001331C7001331C70204600F04CFB43F233320A4B1A602946304600F068FB2946252000F0E8FB06491D20FFF7ACFB70BD70477881FF1F004E00403C
:402BC000945800409884FF1F592F0000F0B583B0284D01272F70284E00247471102000F037FB102000F0B8FB07211D20FFF7A2FB0422224B1A7001331C7007331C70204A2A
:402C0000137843F0180313701E4B1C7003F2F5231C7001331C700A22A3F209331A7001331C7002331C705B2205331A705E2201331A7004331C701422A3F68C231A70009703
:402C400010234FF4004248F6F0510220FFF7BAFE2B78013B06EB83039A780B4B1A702B78013B36F82320094B1A802878FFF73EFF03B0F0BDE480FF1F7881FF1F96580040CD
:402C8000075B0040935800400E4E00400C4E004070B500F0E9FB06462A4B1B782A4B1A7842F001021A701A7842F010021A7010331A7842F001021A701A7842F010021A70AA
:402CC000224D2B7843F002032B70214C237843F0020323701F4A137843F0030313700320FFF70AFB2B7803F0FD032B70237803F0FD032370184A137843F0060313707A22B4
:402D0000164B1A70164A137843F0010313701032137843F0010313700F3A137843F0010313701032137843F0010313704FF000530C4A1360A2F5C0721360304600F098FBD7
:402D400070BD00BFE480FF1FAA430040F8460040F9460040915800407758004082580040A143004080E200E008B5084B9B794BB9064BDB7913F0FF0F01D1FFF727FF012214
:402D8000024B9A71FFF784FF08BD00BF7881FF1F70B500F069FB0646314A137803F0FE0313700132137843F0040313702D4D2B7843F002032B702C4C237843F0020323701C
:402DC00002F52962137803F0FC0313700132137803F0F70313700320FFF78EFA2B7803F0FD032B70237803F0FD0323701F4B1A7802F0EF021A701A7802F0FE021A70103376
:402E00001A7802F0FE021A701A7802F0EF021A70174A137803F0F9031370A2F5A652163A137803F0FE0313701032137803F0FE03137002F5A6521132137803F0F7031370D5
:402E4000A2F5A752137803F0FE0313701032137803F0FE031370304600F00AFB70BD00BF004E0040F8460040F9460040AA43004077580040024A137843F001031370704716
:402E8000004E0040024A137803F0FE0313707047004E0040094B1B7913F0FF0F03D0074B5B79DBB203E0064B1B7803F00103012B01D00028EED01846704700BF7881FF1FE6
:402EC000014E0040154B1B7803F00303012B07D8134B1888023B1B889BB243EA004013E0022B0AD10E4B1888023B1B7843EA00430C4A107843EA002006E00B4B188883B244
:402F0000074A108843EA0040084B1B7913F0FF0F02D00022054B5A71704700BF144E0040124E0040114E0040104E00407881FF1F10B5084A137843F004031370FFF79AFF3A
:402F40000020FFF7A7FFFFF7BDFF0446FFF79AFF204610BD014E0040704700BF044A137803F0FE0300F0010018431070704700BF30510040014B1B685865704708ED00E0EA
:402F80004001C0B2014B1870704700BF05E400E02022014B1A60704700E100E02022014B1A60704780E100E010B50446FFF7F6FF2046FFF7DFFF0720FFF7E2FFFFF7E8FFBC
:402FC00010BD00BF024A137843F080031370704778650040024A137803F07F031370704778650040014B1870704700BF09640040014B1870704700BF49640040014B1870BC
:40300000704700BF29640040014B1870704700BF89640040014B1878704700BF69640040014B1878704700BF5964004008B501E0FFF7F6FFFFF7EEFF10F0100FF8D108BD0F
:4030400010B5114A137803F0C00343F0240313700E4C237843F0010323700020FFF7C2FF0020FFF7C5FF0020FFF7C8FF0020FFF7CBFF00F0F9F9237843F01003237000F09F
:40308000F7F9FFF7D3FF10BD786500409964004008B5054B1B7823B9FFF7D2FF0122024B1A70FFF78FFF08BD8481FF1F084A137843F0010313701032137843F0010313706A
:4030C00002F64D32137843F001031370704700BFA3430040084A137803F0FE031370A2F65D32137803F0FE0313701032137803F0FE031370704700BF004F0040014B1870DE
:40310000704700BF034F0040014B1878704700BF034F0040014B1880704700BF044F0040014B1880704700BF064F004008B5164A137803F0010313700232137803F0FC03F4
:403140001370124B1A7802F0CF021A701A7842F030021A701A7802F0F0021A701A7842F00F021A700A4A137843F00103137040F2E730FFF7CFFF40F2E730FFF7D1FF0820D4
:40318000FFF7BCFF08BD00BF004F00400B4F0040014F004008B5054B1B7823B9FFF7C6FF0122024B1A70FFF781FF08BD8581FF1F024B1B68C3F88400704700BF08ED00E037
:4031C0004001C0B2014B1870704700BF11E400E04FF40032014B1A60704700BF00E100E04FF40032014B1A60704700BF80E100E010B50446FFF7F4FF2046FFF7D9FF072046
:40320000FFF7DEFFFFF7E4FF10BD00BF10B5002404E02046FEF790FB0134E4B2012CF8D9FF22014B1A7010BDE580FF1F10B50446FFF7ECFF2046FEF771FB014B1C7010BD37
:40324000E580FF1F014B188880B2704780400040034B1A7800F0F80010431870704700BF82400040024B187800F00700704700BF8240004070B505460E46FFF7F3FF044699
:40328000FFF7E0FFA84256D02B4B1B7803F0010294B900B185B938B9284B1D80284A137803F0BF03137070BD254A137843F040031370224B1D8070BD22B3002321490B7084
:4032C00001240F310C7004310B700C390B7803F07F030B701A4B1B7813F0080F00D08DB9194B18800721013B1970164B1B7813F0010FFAD110490B7803F0FE030B70002136
:40330000104B19700C4B1B7813F0010F0DD00E4B1D800EB1032200E001220A4B1A70094B1B7813F0010FFAD170BD044B1D8002490B7813430B7070BDA24300408040004044
:40334000824000400140004002400040014B188880B2704700410040034B1A7800F0F80010431870704700BF02410040024B187800F00700704700BF0241004070B5054619
:403380000E46FFF7F3FF0446FFF7E0FFA84256D02B4B1B7803F0010294B900B185B938B9284B1D80284A137803F0BF03137070BD254A137843F040031370224B1D8070BDDA
:4033C00022B3002321490B70012413310C7004390B7008390B7803F07F030B701A4B1B7813F0080F00D08DB9194B18800721013B1970164B1B7813F0010FFAD110490B78E0
:4034000003F0FE030B700021104B19700C4B1B7813F0010F0DD00E4B1D800EB1032200E001220A4B1A70094B1B7813F0010FFAD170BD044B1D8002490B7813430B7070BDD8
:40344000A143004000410040024100400140004002400040000000000230800803D000BF01380046FCD17047EFF3108072B6704780F31088704700BF81F0004102E000BFAD
:4034800083F0004330B54FEA41044FEA430594EA050F08BF90EA020F1FBF54EA000C55EA020C7FEA645C7FEA655C00F0E2804FEA5454D4EB5555B8BF6D420CDD2C4480EA41
:4034C000020281EA030382EA000083EA010180EA020281EA0303362D88BF30BD11F0004F4FEA01314FF4801C4CEA113102D0404261EB410113F0004F4FEA03334CEA1333D5
:4035000002D0524263EB430394EA050F00F0A780A4F10104D5F1200E0DDB02FA0EFC22FA05F2801841F1000103FA0EF2801843FA05F359410EE0A5F120050EF1200E012A29
:4035400003FA0EFC28BF4CF0020C43FA05F3C01851EBE37101F0004507D54FF0000EDCF1000C7EEB00006EEB0101B1F5801F1BD3B1F5001F0CD349085FEA30004FEA3C0C58
:4035800004F101044FEA445212F5800F80F09A80BCF1004F08BF5FEA500C50F1000041EB045141EA050130BD5FEA4C0C404141EB010111F4801FA4F10104E9D191F0000F02
:4035C00004BF01460020B1FA81F308BF2033A3F10B03B3F120020CDA0C3208DD02F1140CC2F10C0201FA0CF021FA02F10CE002F11402D8BFC2F1200C01FA02F120FA0CFCA3
:40360000DCBF41EA0C019040E41AA2BF01EB0451294330BD6FEA04041F3C1CDA0C340EDC04F11404C4F1200220FA04F001FA02F340EA030021FA04F345EA030130BDC4F11C
:403640000C04C4F1200220FA02F001FA04F340EA0300294630BD21FA04F0294630BD94F0000F83F4801306BF81F480110134013D4EE77FEA645C18BF7FEA655C29D094EAC0
:40368000050F08BF90EA020F05D054EA000C04BF1946104630BD91EA030F1EBF0021002030BD5FEA545C05D14000494128BF41F0004130BD14F580043CBF01F5801130BDAD
:4036C00001F0004545F0FE4141F470014FF0000030BD7FEA645C1ABF194610467FEA655C1CBF0B46024650EA013406BF52EA033591EA030F41F4002130BD00BF90F0000F33
:4037000004BF0021704730B54FF4806404F132044FF000054FF0000150E700BF90F0000F04BF0021704730B54FF4806404F1320410F0004548BF40424FF000013EE700BFEA
:4037400042004FEAE2014FEA31014FEA02701FBF12F07F4393F07F4F81F06051704792F0000F14BF93F07F4F704730B54FF4607401F0004521F0004120E700BF50EA010216
:4037800008BF704730B54FF000050AE050EA010208BF704730B511F0004502D5404261EB41014FF4806404F132045FEA915C3FF4DCAE4FF003025FEADC0C18BF03325FEA9C
:4037C000DC0C18BF033202EBDC02C2F1200300FA03FC20FA02F001FA03FE40EA0E0021FA02F11444C1E600BF70B54FF0FF0C4CF4E06C1CEA11541DBF1CEA135594EA0C0FE6
:4038000095EA0C0F00F0DEF82C4481EA030621EA4C5123EA4C5350EA013518BF52EA033541F4801143F4801338D0A0FB02CE4FF00005E1FB02E506F00042E0FB03E54FF0F1
:403840000006E1FB03569CF0000F18BF4EF0010EA4F1FF04B6F5007F64F5407404D25FEA4E0E6D4146EB060642EAC62141EA55514FEAC52040EA5E504FEACE2EB4F1FD0C5C
:4038800088BFBCF5E06F1ED8BEF1004F08BF5FEA500E50F1000041EB045170BD06F0004646EA010140EA020081EA0301B4EB5C04C2BFD4EB0C0541EA045170BD41F48011A4
:4038C0004FF0000E013C00F3AB8014F1360FDEBF002001F0004170BDC4F10004203C35DA0C341BDC04F11404C4F1200500FA05F320FA04F001FA05F240EA020001F0004227
:4039000021F0004110EBD37021FA04F642EB06015EEA430E08BF20EAD37070BDC4F10C04C4F1200500FA04F320FA05F001FA04F240EA020001F0004110EBD37041F1000175
:403940005EEA430E08BF20EAD37070BDC4F1200500FA05F24EEA020E20FA04F301FA05F243EA020321FA04F001F0004121FA04F220EA020000EBD3705EEA430E08BF20EA2F
:40398000D37070BD94F0000F0FD101F00046400041EB010111F4801F08BF013CF7D041EA060195F0000F18BF704703F00046520043EB030313F4801F08BF013DF7D043EA5E
:4039C0000603704794EA0C0F0CEA135518BF95EA0C0F0CD050EA410618BF52EA4306D1D181EA030101F000414FF0000070BD50EA410606BF1046194652EA430619D094EA50
:403A00000C0F02D150EA013613D195EA0C0F05D152EA03361CBF104619460AD181EA030101F0004141F0FE4141F470014FF0000070BD41F0FE4141F4780170BD70B54FF021
:403A4000FF0C4CF4E06C1CEA11541DBF1CEA135594EA0C0F95EA0C0F00F0A7F8A4EB050481EA030E52EA03354FEA013100F088804FEA03334FF0805545EA131343EA1263D3
:403A80004FEA022245EA111545EA10654FEA00260EF000419D4208BF964244F1FD0404F5407402D25B084FEA3202B61A65EB03055B084FEA32024FF480104FF4002CB6EB32
:403AC000020E75EB030E22BFB61A754640EA0C005B084FEA3202B6EB020E75EB030E22BFB61A754640EA5C005B084FEA3202B6EB020E75EB030E22BFB61A754640EA9C009B
:403B00005B084FEA3202B6EB020E75EB030E22BFB61A754640EADC0055EA060E18D04FEA051545EA16754FEA06164FEAC30343EA52734FEAC2025FEA1C1CC0D111F4801FE0
:403B40000BD141EA00014FF000004FF0004CB6E711F4801F04BF01430020B4F1FD0C88BFBCF5E06F3FF6AFAEB5EB030C04BFB6EB020C5FEA500C50F1000041EB045170BDCF
:403B80000EF0004E4EEA113114EB5C04C2BFD4EB0C0541EA045170BD41F480114FF0000E013C90E645EA060E8DE60CEA135594EA0C0F08BF95EA0C0F3FF43BAF94EA0C0F58
:403BC0000AD150EA01347FF434AF95EA0C0F7FF425AF104619462CE795EA0C0F06D152EA03353FF4FDAE1046194622E750EA410618BF52EA43067FF4C5AE50EA41047FF446
:403C00000DAF52EA43057FF4EBAE12E74FEA410212F5001215D211D56FF47873B3EB625212D94FEAC12343F0004343EA505311F0004F23FA02F018BF404270474FF0000041
:403C4000704750EA013005D111F0004008BF6FF0004070474FF00000704700BF80F0004002E000BF81F0004142001FBF5FEA410392EA030F7FEA226C7FEA236C6AD04FEA99
:403C80001262D2EB1363C1BFD218414048404140B8BF5B42192B88BF704710F0004F40F4000020F07F4018BF404211F0004F41F4000121F07F4118BF494292EA030F3FD012
:403CC000A2F1010241FA03FC10EB0C00C3F1200301FA03F100F0004302D5494260EB4000B0F5000F13D3B0F1807F06D340084FEA310102F10102FE2A51D2B1F1004F40EBE4
:403D0000C25008BF20F0010040EA03007047490040EB000010F4000FA2F10102EDD1B0FA80FCACF1080CB2EB0C0200FA0CF0AABF00EBC25052421843BCBFD0401843704770
:403D400092F0000F81F4000106BF80F400000132013BB5E74FEA41037FEA226C18BF7FEA236C21D092EA030F04D092F0000F08BF0846704790EA010F1CBF0020704712F0C7
:403D80007F4F04D1400028BF40F00040704712F100723CBF00F50000704700F0004343F0FE4040F4000070477FEA226216BF08467FEA23630146420206BF5FEA412390EAF1
:403DC000010F40F4800070474FF0000304E000BF10F0004348BF40425FEA000C08BF704743F0964301464FF000001CE050EA010208BF70474FF000030AE000BF50EA010253
:403E000008BF704711F0004302D5404261EB41015FEA010C02BF84460146002043F0B64308BFA3F18053A3F50003BCFA8CF2083AA3EBC25310DB01FA02FC634400FA02FC00
:403E4000C2F12002BCF1004F20FA02F243EB020008BF20F00100704702F1200201FA02FCC2F1200250EA4C0021FA02F243EB020008BF20EADC7070474FF0FF0C1CEAD052B6
:403E80001EBF1CEAD15392EA0C0F93EA0C0F6FD01A4480EA010C400218BF5FEA41211ED04FF0006343EA501043EA5111A0FB01310CF00040B1F5000F3EBF490041EAD371D5
:403EC0005B0040EA010062F17F02FD2A1DD8B3F1004F40EBC25008BF20F00100704790F0000F0CF0004C08BF49024CEA502040EA51207F3AC2BFD2F1FF0340EAC250704771
:403F000040F400004FF00003013A5DDC12F1190FDCBF00F000407047C2F10002410021FA02F1C2F1200200FA02FC5FEA310040F1000053EA4C0308BF20EADC70704792F08C
:403F4000000F00F0004C02BF400010F4000F013AF9D040EA0C0093F0000F01F0004C02BF490011F4000F013BF9D041EA0C018FE70CEAD15392EA0C0F18BF93EA0C0F0AD00E
:403F800030F0004C18BF31F0004CD8D180EA010000F00040704790F0000F17BF90F0004F084691F0000F91F0004F14D092EA0C0F01D142020FD193EA0C0F03D14B0218BF73
:403FC000084608D180EA010000F0004040F0FE4040F40000704740F0FE4040F4400070474FF0FF0C1CEAD0521EBF1CEAD15392EA0C0F93EA0C0F69D0A2EB030280EA010C23
:4040000049024FEA402037D04FF0805343EA111143EA10130CF000408B4238BF5B0042F17D024FF4000C8B4224BF5B1A40EA0C00B3EB510F24BFA3EB510340EA5C00B3EB46
:40404000910F24BFA3EB910340EA9C00B3EBD10F24BFA3EBD10340EADC001B0118BF5FEA1C1CE0D1FD2A3FF650AF8B4240EBC25008BF20F0010070470CF0004C4CEA502005
:404080007F32C2BFD2F1FF0340EAC250704740F400004FF00003013A37E792F0000F00F0004C02BF400010F4000F013AF9D040EA0C0093F0000F01F0004C02BF490011F44E
:4040C000000F013BF9D041EA0C0195E70CEAD15392EA0C0F08D142027FF47DAF93EA0C0F7FF470AF084676E793EA0C0F04D14B023FF44CAF08466EE730F0004C18BF31F0C7
:40410000004CCAD130F000427FF45CAF31F000437FF43CAF5FE700BF014B1868704700BF4881FF1F0E4B70B51E460E4C0025E41AA410A54204D056F8253098470135F8E763
:4041400001F0E2FC084B094C1E46E41AA4100025A54204D056F8253098470135F8E770BD145B0000145B0000145B00001C5B000010B5431E0A44914204D011F8014B03F8DF
:40418000014FF8E710BD03460244934202D003F8011BFAE7704700000EB400B54FF402719CB0ADF814106FF00041049107914FF6FF711DAB02900690084853F8042BADF8FB
:4041C0001610006802A9019300F064F8029B00221A701CB05DF804EB03B070474881FF1F2DE9F0478E6882469E420C46914698463ED88A8912F4906F3AD0256809690223AE
:404200006F1A656905EB450595FBF3F57B1C43449D4238BF1D4653050FD5294600F040FB064698B13A462169FFF7A2FFA38923F4906343F08003A38113E02A4600F08EFB26
:40424000064670B92169504600F0DEFA0C23CAF80030A3894FF0FF3043F04003A381BDE8F08726613E44266046466561ED1BA560464528BF464649463246206800F0A8FA63
:40428000A36800209B1BA36023681E442660BDE8F08700002DE9F04F9DB003938B8980461C060D4616460DD50B695BB9402100F0F7FA2860286118B90C23C8F80030CDE04E
:4042C00040236B610023099320238DF82930DFF89CB130238DF82A3037463C4614F8013B1BB9B7EB060910D003E0252BF9D02746F3E74B46324629464046FFF771FF0130D5
:4043000000F0A780099B4B4409933B78002B00F0A08000234FF0FF3204930793059206938DF853301A930126052221784E4800F041FA671C049B38B14B4A3C46801A06FA9C
:4043400000F018430490EFE7D90644BF20228DF853201A0744BF2B228DF8532022782A2A03D0079A00210A200BE0039A111D12680391002A10DA524243F002000792049088
:404380000BE027463B780134303B092B03D800FB02320121F5E701B107923B782E2B1ED17B782A2B0AD1039B02371A1D1B680392002BB8BF4FF0FF33059310E0002319466A
:4043C0000593781C0A2407463A780130303A092A03D804FB01210123F5E703B1059103223978224800F0E6F940B14023CBEB000003FA00F0049B01371843049039780622AB
:404400001B487E1C8DF8281000F0D4F988B1194B33B9039B073323F007030833039314E003AB00932A46144B04A94046AFF3008007E003AB00932A460F4B04A9404600F048
:4044400093F8B0F1FF3F824603D0099B5344099342E7AB895B0601D4099801E04FF0FF301DB0BDE8F08F00BFD25A0000D85A0000DC5A000000000000E14100002DE9F0472A
:4044800091461F460A698B6806469342B8BF1346C9F8003091F843200C46DDF8208012B10133C9F800302368990642BFD9F800300233C9F80030256815F0060510D104F118
:4044C000190A07E00123524639463046C04701301AD00135E368D9F800209B1A9D42F1DB94F843302268003318BF012392060FD5E118302081F843005A1C94F84510224418
:40450000023382F8431003E04FF0FF30BDE8F08704F1430239463046C0470130F4D02268D9F80050E36802F00602042A08BF5D1B2269A3680CBF25EAE57500259342C4BF3D
:404540009B1AED184FF000091A344D4509D00123224639463046C0470130D5D009F10109F3E70020BDE8F0872DE9F04317460A7E85B06E2A984606460C460C9B01F1430EA7
:4045800000F0AE8011D8632A22D009D8002A00F0BB80582A40F0CA8081F84520834955E0642A1ED0692A1CD0C0E0732A00F0B08009D86F2A2ED0702A40F0B8800A6842F0EE
:4045C00020020A603EE0752A24D0782A3AD0ADE01A6801F14205111D1960136884F84230A8E021681A6811F0800F02D0111D196008E011F0400F02F10401196002D0B2F9B8
:40460000003000E01368002B3CDA2D225B4284F8432037E021681A6811F0800F02D0111D196007E011F0400F02F10401196001D0138800E01368227E5C496F2A14BF0A226C
:4046400008221BE078225A4984F845202268186812F0800F00F104051D6003D1550601D5038800E00368D00744BF42F0200222601BB9226822F0200222601022002084F878
:40468000430001E049490A226568002DA56008DB206820F0040020602BB9002D7DD175460CE0002B79D07546B3FBF2F002FB1033CB5C05F8013D03460028F5D1082A0BD16E
:4046C0002368DA0708D5236962689A42DEBF302305F8013C05F1FF35C5EB0E0323612EE008681A6810F0800F496903D0101D1860136808E010F0400F02F104001860136851
:4047000001D0198000E0196000232361754616E01A68111D1960156800216268284600F049F808B1401B6060636804E004F1420584F8422001232361002384F84330CDF812
:4047400000803B4603AA21463046FFF797FE013002D14FF0FF3026E023692A4639463046C0470130F5D023689B0710D5002504F1190907E001234A4639463046C0470130A7
:40478000E7D00135E368039A9B1A9D42F2DBE068039B9842B8BF184605E00B7804F1420584F842308AE705B0BDE8F083E35A0000F45A000010B5C9B202449042034605D05D
:4047C0001C7801308C42F8D1184610BD002010BD884210B501EB020301D8421E0BE09842FBD28118D21AD34204D013F8014D01F8014DF8E710BD994204D011F8014B02F842
:40480000014FF8E710BD000038B50546002944D051F8043C0C1F002BB8BFE41800F0D4F81E4A1368114613B96360146030E0A3420DD92268A018834201BF18685B681218AD
:40484000226063600C6023E0A24203D813465A68002AF9D118681918A1420BD12168014458188242196013D110685268014419605A600DE002D90C232B6009E021686018D1
:40488000824201BF106852680918216062605C602846BDE8384000F098B838BD8C81FF1F70B5CD1C25F0030508350C2D38BF0C25002D064601DBA94202D90C23336046E06B
:4048C00000F082F8234B1C681A462146A1B10B685B1B0ED40B2B03D90B60CC18CD501EE08C420BBF63684B681360636018BF0C4615E00C464968E9E7174C23681BB9304687
:4049000000F052F820602946304600F04DF8431C18D0C41C24F00304A0420DD12560304600F053F804F10B00231D20F00700C31A0ED05A42E25070BD211A304600F034F891
:404940000130EBD10C233360304600F03EF8002070BD00BF8C81FF1F8881FF1FF8B5074615460E4621B91146BDE8F840FFF798BF1AB9FFF749FF2846F8BD00F027F8854280
:404980000ED929463846FFF78BFF044650B131462A46FFF7EDFB31463846FFF735FF01E03046F8BD2046F8BD38B5064C0023054608462360FDF776F8431C02D1236803B1FC
:4049C0002B6038BD9C84FF1F7047704751F8040C0028BEBF091851F8043CC01804387047000000002020202020454550524F4D2077696C6C206265207772697474656E20A4
:404A00007374617274696E672066726F6D20616464726573733A20307825780D0A0000002020202020526574726976696E67206F6C642073657475702E2E2E0D0A000000CF
:404A400020202020204F6C642053616D706C696E67206672657175656E6379202020202020202020202020434F525255505445440D0A000020202020204F6C6420616464D3
:404A80006974696F6E616C2073656E736F722020202020203078253032582052455452495645440D0A00000020202020204F6C642066756C6C207363616C652072616E67E7
:404AC000652020202020202020202020202020434F525255505445440D0A000020202020204F6C642066756C6C207363616C652072616E67652020202020202030782530FE
:404B000032582052455452495645440D0A00000020202020204F6C64206164646974696F6E616C2073656E736F7220202020202020202020202020434F5252555054454445
:404B40000D0A000020202020204F6C642073746172742F73746F7020636F6E646974696F6E20202020202020202020434F525255505445440D0A000020202020204F6C6467
:404B80002073746172742F73746F7020636F6E646974696F6E2020203078253032582052455452495645440D0A000000202020202044454641554C542053746172742F53F3
:404BC000746F7020636F6E642E2020203A2053544F50200D0A000000202020202044454641554C542073616D706C696E67206672657175656E6379203A2031487A200D0A83
:404C00000000000020202020204572726F72206F636375727265642073657474696E67207468652064656661756C742073616D706C696E67206672657175656E6379200D35
:404C40000A000000202020202044454641554C542066756C6C207363616C652072616E67652020203A202B2D3267200D0A00000020202020204572726F72206F6363757295
:404C80007265642073657474696E67207468652064656661756C742066756C6C207363616C652072616E6765200D0A00202020202044454641554C54206164646974696F33
:404CC0006E616C2073656E736F7220203A20506F74656E74696F6D65746572200D0A0000202020202053616D706C696E67206672657175656E637920202020202020202092
:404D0000202020202020205355434345535346554C4C59205341564544200D0A00000000202020202046756C6C207363616C652072616E676520202020202020202020203C
:404D4000202020202020205355434345535346554C4C59205341564544200D0A0000000020202020204164646974696F6E616C2073656E736F722020202020202020202051
:404D8000202020202020205355434345535346554C4C59205341564544200D0A00000000202020202053746172742F73746F7020636F6E646974696F6E202020202020203A
:404DC000202020202020205355434345535346554C4C59205341564544200D0A000000002020202020496E697469616C697A696E67204649464F206D6F64652E2E2E0D0A2F
:404E00000000000020202020204F76657272756E20696E746572727570742020202020202020202020202020202020454E41424C45440D0A0000000020202020204649463D
:404E40004F206D6F64652020202020202020202020202020202020202020202020202053454C45435445440D0A00000020202020204649464F206D6F646520202020202055
:404E800020202020202020202020202020202020202020454E41424C45440D0A00000000202020202046535220434F4E54524F4C205245474953544552203420737563631D
:404EC00065737366756C6C79207772697474656E20616E642073617665642061733A203078253032580D0A0020202020204572726F72206F636375727265642064757269A7
:404F00006E672049324320636F6D6D20746F2073657420636F6E74726F6C20726567697374657220340D0A002020202020526573657474696E6720454550524F4D2773207B
:404F4000706F696E7465722E2E2E00002020202020444F4E450D0A002020202020534620434F4E54524F4C2052454749535445522031207375636365737366756C6C792014
:404F80007772697474656E20616E642073617665642061733A203078253032580D0A000020202020204572726F72206F6363757272656420647572696E6720493243206347
:404FC0006F6D6D20746F2073657420636F6E74726F6C20726567697374657220310D0A0020202020204163717569736974696F6E20626567756E0D0A0000000020202020FA
:40500000204163717569736974696F6E2073746F707065640D0A00002020202020456C61707365642074696D653A2025646D73200D0A000020202020203D3D3D3D3D3D3D1F
:405040003D3D3D3D3D3D3D3D3D3D3D3D3D3D3D3D3D3D3D3D3D3D3D3D3D3D3D3D3D3D3D3D3D3D3D3D3D3D3D3D3D3D3D3D3D3D3D3D3D3D3D3D3D3D3D3D0D0A00002020202041
:40508000207C202F2F2F2F2F2F2F2F2F2F2F2F2F2F2F20434F4E54524F4C2050414E4E454C20494E535452554354494F4E53202F2F2F2F2F2F2F2F2F2F2F2F2F2F2F207C02
:4050C0000D0A000020202020207C202020202020202020202020202020202020202020202020202020202020202020202020202020202020202020202020202020202020BD
:40510000202020202020207C0D0A000020202020207C20203F202D2052657475726E2074686520636F6E74726F6C2070616E6E656C20202020202020202020202020202074
:405140002020202020202020202020202020207C0D0A000020202020207C20206F202D2053756D6D617279206F6620746865206C617474657220636F6D6D616E647320659D
:405180006E746572656420202020202020202020202020202020207C0D0A000020202020207C202066202D20436F6E66696775726174696F6E206F66207468652061636396
:4051C000656C65726F6D6574657227732046554C4C205343414C452052414E474520207C0D0A000020202020207C2020202020202B2D2D2D2D2D2D2D2D2B2B2D2D2D2D2D00
:405200002D2D2D2D2B2D2D2D2D2D2D2D2D2D2B2D2D2D2D2D2D2D2D2D2B2D2D2D2D2D2D2D2D2D2B202020207C0D0A000020202020207C2020202020207C20206368617220E6
:40524000207C7C2020202031202020207C2020202032202020207C2020202033202020207C2020202034202020207C202020207C0D0A000020202020207C2020202020206D
:405280007C20204653522020207C7C20202B2D32672020207C20202B2D34672020207C20202B2D38672020207C20202B2D31366720207C202020207C0D0A0000202020200B
:4052C000207C202070202D20436F6E66696775726174696F6E206F662074686520616363656C65726F6D6574657227732053414D504C494E4720465245512E202020207C3F
:405300000D0A000020202020207C2020202020207C20205346202020207C7C20202031487A2020207C2020203130487A20207C2020203235487A20207C2020203530487A73
:4053400020207C202020207C0D0A000020202020207C202076202D20537461727420454550524F4D20646174612076697375616C697A6174696F6E2020202020202020209D
:405380002020202020202020202020202020207C0D0A000020202020207C202075202D2053746F7020454550524F4D20646174612076697375616C697A6174696F6E202002
:4053C00020202020202020202020202020202020202020202020207C0D0A000020202020207C20206C202D204164646974696F6E616C2073656E736F727320646174612005
:4054000073746F72696E672020202020202020202020202020202020202020202020207C0D0A000020202020207C202020202020202020202020202020202B2D2D2D2D2DAB
:405440002D2D2D2B2B2D2D2D2D2D2D2D2D2D2B2D2D2D2D2D2D2D2D2D2B20202020202020202020202020207C0D0A000020202020207C2020202020202020202020202020A0
:4054800020207C20206368617220207C7C2020202030202020207C2020202031202020207C20202020202020202020202020207C0D0A000020202020207C20202020202092
:4054C000202020202020202020207C202053454E5320207C7C2020204C44522020207C202020504F542020207C20202020202020202020202020207C0D0A0000202020201F
:40550000207C202062202D205374617274206163717569736974696F6E2066726F6D20616363656C65726F6D6574657220616E6420646174612073746F72696E6720207CAB
:405540000D0A000020202020207C202073202D2053746F70206163717569736974696F6E2066726F6D20616363656C65726F6D6574657220616E6420646174612073746F97
:4055800072696E672020207C0D0A000020202020205741524E494E4721213A20646F204E4F5420656E74657220636F6D6D616E6473206C696B652027504C46203132332797
:4055C000206275742072617468657220275031204C3220463327200D0A00000020202020206578616D706C6520313A2069662027504C4620313233272061726520656E7472
:40560000657265642C20502C4C20616E6420462073746174757320666C616773206172652072657365742E200D0A000020202020206578616D706C6520323A2069662027BE
:405640004C332050312720202061726520656E74657265642C2050202020616E64204C2073746174757320666C616773206172652072657365742E200D0A00002020202038
:40568000206578616D706C6520333A206966202750352032272020202061726520656E74657265642C207468652073616D706C696E67206672657175656E63792069732048
:4056C00073657420746F203130487A2E200D0A002020202020456E74657220746865206E657720636F6D6D616E643A20200D0A00202020202053756D6D617279206F662017
:40570000746865206C6174746572206F7074696F6E7320656E74657265643A200D0A00002020202020202020202047656E6572616C2073746174653A2074686520616371A9
:405740007569736974696F6E206973204E4F542072756E6E696E67200D0A00002020202020202020202047656E6572616C2073746174653A20746865206163717569736967
:4057800074696F6E2069732072756E6E696E67200D0A00002020202020202046756C6C205363616C652052616E67653A204E4F54206D6F6469666965642079657420696E3E
:4057C00020746869732073657373696F6E200D0A000000002020202020202046756C6C205363616C652052616E67653A202B2D3267200D0A00000000202020202020204646
:40580000756C6C205363616C652052616E67653A202B2D3467200D0A000000002020202020202046756C6C205363616C652052616E67653A202B2D3867200D0A0000000072
:405840002020202020202046756C6C205363616C652052616E67653A202B2D313667200D0A000000202020202053616D706C696E67204672657175656E63793A204E4F54F1
:40588000206D6F6469666965642079657420696E20746869732073657373696F6E20200D0A000000202020202053616D706C696E67204672657175656E63793A2031487AD1
:4058C000200D0A00202020202053616D706C696E67204672657175656E63793A203130487A200D0A00000000202020202053616D706C696E67204672657175656E63793A29
:40590000203235487A200D0A00000000202020202053616D706C696E67204672657175656E63793A203530487A200D0A000000002020202020204164646974696F6E616CC9
:405940002053656E736F723A204E4F54206D6F6469666965642079657420696E20746869732073657373696F6E200D0A000000002020202020204164646974696F6E616C8C
:405980002053656E736F723A204C4452200D0A002020202020204164646974696F6E616C2053656E736F723A20506F746574696F6D65746572200D0A000000002020202075
:4059C00020544845205055534820425554544F4E20484153204245454E2050524553534544200D0A00000000202020202054686520454550524F4D277320706F696E7465B5
:405A00007220686173206265656E207265736574200D0A00202020202035207365636F6E647320686176656E2774206265656E20656C617073656420796574200D0A000052
:405A40003D510040005B00403D510040005B004004401010035B00402443004040000000C84900401900004F00400C00405100403000F0510040100000000140800200030E
:405A80000140000180040140800B00140140000480180140800300400140000A004C0140000200500140200060520040440600480600800201404C06004880000004014028
:405AC000CC0600488000001801404C07004880004300232D302B2000686C4C00656667454647003031323334353637383941424344454600303132333435363738396162F4
:405B00006364656600000000F8B500BFF8BC08BC9E4670474D000000211B0000F8B500BFF8BC08BC9E46704729000000405B0000C880FF1F88000000500300000000000047
:405B400000000000A084FF1FFF0000000000E02EC05D00001800000000366E0101FF00000000000000000000000000000000000000000000000000000000000000000000FC
:405B8000D05A0000000000000000000000000000000000000000000000000000000000000000000000000000000000000000000000000000000000000000000000000000BB
:405BC000E880FF1F0000000000000000000000000000000000000000000000000000000000000000000000000000000000000000000000000000000000000000000000001F
:405C00000000000000000000000000000000000000000000000000000000000000000000000000000000000000000000000000000000000000000000000000000000000064
:405C40000000000000000000000000000000000000000000000000000000000000000000000000000000000000000000000000000000000000000000000000000000000024
:405C800000000000000000000000000000000000000000000000000000000000000000000000000000000000000000000000000000000000000000000000000000000000E4
:405CC00000000000000000000000000000000000000000000000000000000000000000000000000000000000000000000000000000000000000000000000000000000000A4
:020000040003F7
:0200000480007A
:40000000024F00400352004004640040026500400201014012020140360301402304014041050140050701406008014037090140060B0140020D0140040E0140030F01408A
:400040000515014003170140161801404A1901404F1A01404D1B0140074001400D4101400942014002430140064401400645014006460140024701400748014014490140DF
:400080000B4C01400F4D0140065001400351014001300A4B004001601102840F850D880F890D89388B728E01E640050109010E03140115011A022603340337013F40540904
:4000C0005604580459045B045C015D105F010088030805800A590E080F1010A0120A1508180419101B081E0820202214270129803218360838803B103C2840044104430239
:4001000046804701488449884B10504852105D0A5E805F20621063A16681804083608E049E01C087C26FC42FCA08CC46CE6CD007D20CD6F0D89FE240EE0A87018B0195018B
:40014000A302AF02B102B701BF41C045C5ECC602C807C9FFCAFFCBFFCD83CE03CF01D018D280D401D904DA04DB04DD55DF01E040E240E440E540E680E880EA80EC80EE80CD
:40018000008801020A59102A19021B10200C2104220E2440264028202A222E802F803020320633403608388439103C283E204280438046804D014F8457C05C405D015F04B5
:4001C0006002686069506A506B407203768088048904908095089651A018A464A64AA710A912AB0AB010B180B408B701C00DC20FC407CA97CC4FCE6ED089D210D6D0D80881
:40020000EA049C02A820A940AC12E808044D05030610070C082809090A510B061102130D144D15051630170A180C1A501B101E202002225425202B103040323C3310352009
:400240003603370F38803A283B803E013F144034410645BC46E0480B49FF4AFF4BFF4EF04F44500C5401580459045A045B045C125D225F0166C06A406B02820288018E0566
:40028000910195039604B002B102B201B404B701BE10C040C106C5D0C620C701C81AC9FFCAFFCBFFCDA0CF04D018D405D804D904DA04DB04DC44DD44DF01E040E2C0E4405F
:4002C000E540E6C0E8C0EAC0ECC0EEC00002030A041808200B240E210F04164019081A081B021D2C1E611F40210222402504270A2C202F0431023308362837023D043F10F3
:4003000043024509464049014B204C044D024F045318542059015A885C215E405F08910493109D08A208AF10C06BC2E4C410CA60CCE3CE60D0C1D224D6FB810889048A086E
:40034000E020E484EA04AE80EE0239823F4159045F01204022808C40E008E205E401EA05EC10AC02E611EE028401860E87018A08921C981C9A03A203A401A616B20FB41A48
:40038000B501BA28D418D604D804D904DB04DC62DD20DF01002405090608080809040A040B800C180D020E08130915011624181C19201B041C401D811E081F0421202680CB
:4003C00027142C082D042E082F4835263680370839283A103C203D023E443F294582461047044C804E214F105B016088630274018080850489018B10910193809418970872
:400400009906A104A401A501A620AF02B121B421C076C27AC47CCAE0CCF0CEF2D0D0D230D601D80DE208E610000419021A011B011E02220229012B02300232013301340437
:4004400037023E11580459045C665F01810582018418853088198A628C108D0F914F9330940195109680990A9A669C679D209E18A17FA408A57CA703A839A970AA44AB0FB5
:40048000AC7FAF0FB080B13CB21FB340B458B638B703BA28BB02BF04C002C640C9FFCA07CBFFCC40CD20CEF0CF05D008D602D711D804D904DA04DB04DC22DD22DF01E0409B
:4004C000E1A8E240E320028005810604072009200A030D100E22108015101602170419201B051D011E011F142140220824102502260327012B042D112EA22F143120341095
:400500003580360237043C4A47104F0157105C10660467206D046E406F0874047580772481408208880189388A909040912195049642970198109B109D089E249F01A08050
:40054000A120A280A502A719C0F8C2E3C4E8CAF4CCF4CED0D020D620E008E401EA05EC103312360837803B408E08CCF0CE1032406308660883028F049F90A301A702AF41BA
:40058000CC10D8C0E220EE503E10630296809F90A301AA08CE20D640EE8096909F9013027C208C20C408DE01E002000402085301AF02C00AD401450883019702A208A80416
:4005C000D001A208A508251082408E0296909F90C820E680122016407B027E028220839086409F90A202A302AA10AB02B510C430DC80DE20E010E2A0E480EAA01328168086
:400600007B107F4086088E80A208A508C40EDE03E608104073408310874088408B409780A710AB28B508C408DC01E004E201EC08003608020A220C1610541C5400FF010FB9
:4006400003C00000028000004300000000000000070038000113002484400000040080008065041A560E09008400000060000000840000000A0010000444000900007F7001
:40068000800F000008200008000010003506200004BEFC0D1FFFFFFF2200F008040000004000040004040404111100010000C00040011011C001001140014001000000001E
:4006C00000000000000000000000000002000D0001130264000200981D0200000D3810C01D2100D8029804021D9A0000009A00001D98000200FC1003020008000FE0000FCE
:40070000101300000000020A00001000410000000000000000FFFFFF000000011800000000000220040404041115000140004000404080008000800080008000000000004A
:4007400000000000000000000000000008009440059C4A021F10000000200000201400001FD0000C12CC491100000003200900100020200000202000000000001C0020C042
:400780000320C01F08080000000040044306050001CE000003FFFFFF62A0F0410C0080000000000004040404224200010000000000004002001030100010101200000000CE
:4007C0000000000000000000000000000060600060000000830050808300830000000000000B0B000000000016000116120002000000000001000001010000001400000012
:40080000250018010000000000000000000000000000000000000000000000000000000000000000000000000000000000000000000000000000000000000000000000007A
:400840000000000000000000000000000000000000000000000000000000000000000000000000000000000000000000000000000000000000000000000000000000000078
:400880000000000000000000000000000000000000000000000000000000000000000000000000000000000000000000000000000000000000000000000000000000000038
:4008C00000000000000000000000000000000000000000000000000000000000000000000000000000000000000000000000000000000000000000000000000000000000F8
:4009000000000000000000000000000000000000000000000000000000000000000000000000000000000000000000000000000000000000000000000000000000000000B7
:0200000490006A
:0400000000004005B7
:0200000490105A
:04000000BC90ACAF55
:0200000490303A
:02000000D3F338
:0200000490402A
:4000000000000000000000000000000000000000000000000000000000000000000000000000000000000000000000000000000000000000000000000000000000000000C0
:400040000000000000000000000000000000000000000000000000000000000000000000000000000000000000000000000000000000000000000000000000000000000080
:400080000000000000000000000000000000000000000000000000000000000000000000000000000000000000000000000000000000000000000000000000000000000040
:4000C0000000000000000000000000000000000000000000000000000000000000000000000000000000000000000000000000000000000000000000000000000000000000
:0200000490501A
:0C00000000012E16106900012E38E45C8F
:00000001FF